{"_format":"hh-sol-artifact-1","contractName":"PoolConfigurator","sourceName":"contracts/PoolConfigurator.sol","abi":[{"inputs":[{"internalType":"uint256","name":"baseBorrowRate_","type":"uint256"},{"internalType":"uint256","name":"rateSlop1_","type":"uint256"},{"internalType":"uint256","name":"rateSlop2_","type":"uint256"},{"internalType":"uint256","name":"liquidationThreshold_","type":"uint256"},{"internalType":"uint256","name":"liquidationBonusPercent_","type":"uint256"},{"internalType":"uint256","name":"excessUtilizationRate_","type":"uint256"},{"internalType":"uint256","name":"optimalUtilizationRate_","type":"uint256"}],"stateMutability":"nonpayable","type":"constructor"},{"inputs":[{"internalType":"uint256","name":"totalBorrow_","type":"uint256"},{"internalType":"uint256","name":"totalLiquidity_","type":"uint256"}],"name":"calculateBorrowInterestRate","outputs":[{"internalType":"uint256","name":"borrowInterest","type":"uint256"}],"stateMutability":"view","type":"function"},{"inputs":[],"name":"liquidationBonusPercent","outputs":[{"internalType":"uint256","name":"","type":"uint256"}],"stateMutability":"view","type":"function"},{"inputs":[],"name":"liquidationThreshold","outputs":[{"internalType":"uint256","name":"","type":"uint256"}],"stateMutability":"view","type":"function"}],"bytecode":"0x61016060405234801561001157600080fd5b506040516108f93803806108f9833981810160405281019061003391906100b5565b86608081815250508560a081815250508460c081815250508360e0818152505082610100818152505081610120818152505080610140818152505050505050505050610157565b600080fd5b6000819050919050565b6100928161007f565b811461009d57600080fd5b50565b6000815190506100af81610089565b92915050565b600080600080600080600060e0888a0312156100d4576100d361007a565b5b60006100e28a828b016100a0565b97505060206100f38a828b016100a0565b96505060406101048a828b016100a0565b95505060606101158a828b016100a0565b94505060806101268a828b016100a0565b93505060a06101378a828b016100a0565b92505060c06101488a828b016100a0565b91505092959891949750929550565b60805160a05160c05160e05161010051610120516101405161072e6101cb6000396000818160c30152818160f0015261037c0152600061013c015260006104350152600061045d015260006101c001526000818161025f01526102e101526000818161028001526103fb015261072e6000f3fe608060405234801561001057600080fd5b50600436106100415760003560e01c80631a792944146100465780633dd6b14a146100765780634031234c14610094575b600080fd5b610060600480360381019061005b919061057d565b6100b2565b60405161006d91906105cc565b60405180910390f35b61007e610431565b60405161008b91906105cc565b60405180910390f35b61009c610459565b6040516100a991906105cc565b60405180910390f35b6000806100bf8484610481565b90507f00000000000000000000000000000000000000000000000000000000000000008111156102bf57600061011e7f00000000000000000000000000000000000000000000000000000000000000008361051690919063ffffffff16565b73__$b4cafc809c0c4516e81e1b7a7f4901dbfc$__63e57b6d3b90917f00000000000000000000000000000000000000000000000000000000000000006040518363ffffffff1660e01b81526004016101789291906105f6565b602060405180830381865af4158015610195573d6000803e3d6000fd5b505050506040513d601f19601f820116820180604052508101906101b99190610634565b90506102bb7f000000000000000000000000000000000000000000000000000000000000000073__$b4cafc809c0c4516e81e1b7a7f4901dbfc$__63761fdad69091846040518363ffffffff1660e01b81526004016102199291906105f6565b602060405180830381865af4158015610236573d6000803e3d6000fd5b505050506040513d601f19601f8201168201806040525081019061025a9190610634565b6102ad7f00000000000000000000000000000000000000000000000000000000000000007f000000000000000000000000000000000000000000000000000000000000000061052c90919063ffffffff16565b61052c90919063ffffffff16565b9250505b6104288173__$b4cafc809c0c4516e81e1b7a7f4901dbfc$__63761fdad690917f00000000000000000000000000000000000000000000000000000000000000006040518363ffffffff1660e01b815260040161031d9291906105f6565b602060405180830381865af415801561033a573d6000803e3d6000fd5b505050506040513d601f19601f8201168201806040525081019061035e9190610634565b73__$b4cafc809c0c4516e81e1b7a7f4901dbfc$__63e57b6d3b90917f00000000000000000000000000000000000000000000000000000000000000006040518363ffffffff1660e01b81526004016103b89291906105f6565b602060405180830381865af41580156103d5573d6000803e3d6000fd5b505050506040513d601f19601f820116820180604052508101906103f99190610634565b7f000000000000000000000000000000000000000000000000000000000000000061052c90919063ffffffff16565b91505092915050565b60007f0000000000000000000000000000000000000000000000000000000000000000905090565b60007f0000000000000000000000000000000000000000000000000000000000000000905090565b600080821461050b578273__$b4cafc809c0c4516e81e1b7a7f4901dbfc$__63e57b6d3b9091846040518363ffffffff1660e01b81526004016104c59291906105f6565b602060405180830381865af41580156104e2573d6000803e3d6000fd5b505050506040513d601f19601f820116820180604052508101906105069190610634565b61050e565b60005b905092915050565b600081836105249190610690565b905092915050565b6000818361053a91906106c4565b905092915050565b600080fd5b6000819050919050565b61055a81610547565b811461056557600080fd5b50565b60008135905061057781610551565b92915050565b6000806040838503121561059457610593610542565b5b60006105a285828601610568565b92505060206105b385828601610568565b9150509250929050565b6105c681610547565b82525050565b60006020820190506105e160008301846105bd565b92915050565b6105f081610547565b82525050565b600060408201905061060b60008301856105e7565b61061860208301846105e7565b9392505050565b60008151905061062e81610551565b92915050565b60006020828403121561064a57610649610542565b5b60006106588482850161061f565b91505092915050565b7f4e487b7100000000000000000000000000000000000000000000000000000000600052601160045260246000fd5b600061069b82610547565b91506106a683610547565b92508282039050818111156106be576106bd610661565b5b92915050565b60006106cf82610547565b91506106da83610547565b92508282019050808211156106f2576106f1610661565b5b9291505056fea26469706673582212200af5867a9b620e7ea2f48ba9d41efd49b9365930b099be7bf811f0764189a36764736f6c63430008110033","linkReferences":{"contracts/libraries/WadMath.sol":{"WadMath":[{"length":20,"start":747},{"length":20,"start":940},{"length":20,"start":1168},{"length":20,"start":1323},{"length":20,"start":1624}]}},"deployedLinkReferences":{"contracts/libraries/WadMath.sol":{"WadMath":[{"length":20,"start":288},{"length":20,"start":481},{"length":20,"start":709},{"length":20,"start":864},{"length":20,"start":1165}]}}}