{"_format":"hh-sol-artifact-1","contractName":"LendingPool","sourceName":"contracts/LendingPool.sol","abi":[{"inputs":[],"name":"AssetTransferFail","type":"error"},{"inputs":[],"name":"NotEnoughLiquidityError","type":"error"},{"inputs":[{"internalType":"uint256","name":"","type":"uint256"}],"name":"NotExistedStatus","type":"error"},{"inputs":[],"name":"OnlyReservesInPoolError","type":"error"},{"inputs":[],"name":"PoolNotActivatedError","type":"error"},{"inputs":[],"name":"TokenNotAllowedError","type":"error"},{"inputs":[],"name":"WrongOraclePriceFeedError","type":"error"},{"inputs":[],"name":"WrongPoolConfigError","type":"error"},{"inputs":[],"name":"WrongTokenError","type":"error"},{"inputs":[],"name":"ZeroAmountError","type":"error"},{"inputs":[],"name":"ZeroBalanceError","type":"error"},{"anonymous":false,"inputs":[{"indexed":true,"internalType":"address","name":"account","type":"address"},{"indexed":true,"internalType":"address","name":"token","type":"address"},{"indexed":false,"internalType":"uint256","name":"amount","type":"uint256"}],"name":"Borrow","type":"event"},{"anonymous":false,"inputs":[{"indexed":true,"internalType":"address","name":"account","type":"address"},{"indexed":true,"internalType":"address","name":"token","type":"address"},{"indexed":false,"internalType":"uint256","name":"amount","type":"uint256"}],"name":"Deposit","type":"event"},{"anonymous":false,"inputs":[{"indexed":true,"internalType":"address","name":"token","type":"address"},{"indexed":true,"internalType":"address","name":"poolConfig","type":"address"}],"name":"InitPool","type":"event"},{"anonymous":false,"inputs":[{"indexed":false,"internalType":"uint8","name":"version","type":"uint8"}],"name":"Initialized","type":"event"},{"anonymous":false,"inputs":[{"indexed":true,"internalType":"address","name":"user","type":"address"},{"indexed":true,"internalType":"address","name":"liquidator","type":"address"},{"indexed":false,"internalType":"address","name":"liquidatedToken","type":"address"},{"indexed":false,"internalType":"address","name":"collateralToken","type":"address"},{"indexed":false,"internalType":"uint256","name":"purchaseAmount","type":"uint256"}],"name":"Liquidation","type":"event"},{"anonymous":false,"inputs":[{"indexed":true,"internalType":"address","name":"previousOwner","type":"address"},{"indexed":true,"internalType":"address","name":"newOwner","type":"address"}],"name":"OwnershipTransferred","type":"event"},{"anonymous":false,"inputs":[{"indexed":true,"internalType":"address","name":"account","type":"address"},{"indexed":true,"internalType":"address","name":"token","type":"address"},{"indexed":false,"internalType":"uint256","name":"amount","type":"uint256"}],"name":"Repay","type":"event"},{"anonymous":false,"inputs":[{"indexed":true,"internalType":"address","name":"token","type":"address"},{"indexed":false,"internalType":"uint256","name":"status","type":"uint256"},{"indexed":false,"internalType":"uint256","name":"timestamp","type":"uint256"}],"name":"Status","type":"event"},{"anonymous":false,"inputs":[{"indexed":true,"internalType":"address","name":"account","type":"address"},{"indexed":true,"internalType":"address","name":"token","type":"address"},{"indexed":false,"internalType":"uint256","name":"amount","type":"uint256"}],"name":"Withdraw","type":"event"},{"inputs":[{"internalType":"address","name":"token_","type":"address"},{"internalType":"uint256","name":"amount_","type":"uint256"}],"name":"borrow","outputs":[],"stateMutability":"nonpayable","type":"function"},{"inputs":[{"internalType":"address","name":"account_","type":"address"},{"internalType":"address","name":"token_","type":"address"}],"name":"compoundedBorrowOfUser","outputs":[{"internalType":"uint256","name":"","type":"uint256"}],"stateMutability":"view","type":"function"},{"inputs":[{"internalType":"address","name":"account_","type":"address"},{"internalType":"address","name":"token_","type":"address"}],"name":"compoundedLiquidityOfUser","outputs":[{"internalType":"uint256","name":"","type":"uint256"}],"stateMutability":"view","type":"function"},{"inputs":[{"internalType":"address","name":"account_","type":"address"}],"name":"getAccountInfo","outputs":[{"internalType":"uint256","name":"collateral","type":"uint256"},{"internalType":"uint256","name":"totalBorrow","type":"uint256"}],"stateMutability":"view","type":"function"},{"inputs":[{"internalType":"address","name":"token_","type":"address"}],"name":"getPool","outputs":[{"internalType":"enum Storage.Stat","name":"","type":"uint8"},{"internalType":"address","name":"","type":"address"},{"internalType":"address","name":"","type":"address"},{"internalType":"address","name":"","type":"address"}],"stateMutability":"view","type":"function"},{"inputs":[{"internalType":"address","name":"user_","type":"address"},{"internalType":"address","name":"token_","type":"address"}],"name":"getPurchaseAmount","outputs":[{"internalType":"uint256","name":"","type":"uint256"}],"stateMutability":"view","type":"function"},{"inputs":[{"internalType":"address","name":"priceFeedAddress_","type":"address"},{"internalType":"uint256","name":"amount_","type":"uint256"}],"name":"getUsdValue","outputs":[{"internalType":"uint256","name":"","type":"uint256"}],"stateMutability":"view","type":"function"},{"inputs":[{"internalType":"address","name":"account_","type":"address"}],"name":"healthFactor","outputs":[{"internalType":"uint256","name":"","type":"uint256"}],"stateMutability":"view","type":"function"},{"inputs":[{"internalType":"address","name":"token_","type":"address"},{"internalType":"address","name":"poolConfig_","type":"address"},{"internalType":"address","name":"priceFeedAddress_","type":"address"},{"internalType":"address","name":"priceInUSDFeedAddress_","type":"address"}],"name":"initPool","outputs":[],"stateMutability":"nonpayable","type":"function"},{"inputs":[{"internalType":"address","name":"sTokenFacoryAddress_","type":"address"}],"name":"initialize","outputs":[],"stateMutability":"nonpayable","type":"function"},{"inputs":[{"internalType":"address","name":"token_","type":"address"}],"name":"isCollateralEnabled","outputs":[{"internalType":"bool","name":"","type":"bool"}],"stateMutability":"view","type":"function"},{"inputs":[{"internalType":"address","name":"user_","type":"address"},{"internalType":"address","name":"liquidatedToken_","type":"address"},{"internalType":"address","name":"collateralToken_","type":"address"},{"internalType":"uint256","name":"purchaseAmount_","type":"uint256"}],"name":"liquidation","outputs":[],"stateMutability":"nonpayable","type":"function"},{"inputs":[],"name":"owner","outputs":[{"internalType":"address","name":"","type":"address"}],"stateMutability":"view","type":"function"},{"inputs":[],"name":"renounceOwnership","outputs":[],"stateMutability":"nonpayable","type":"function"},{"inputs":[{"internalType":"address","name":"token_","type":"address"},{"internalType":"uint256","name":"amount_","type":"uint256"}],"name":"repay","outputs":[],"stateMutability":"nonpayable","type":"function"},{"inputs":[{"internalType":"address","name":"token_","type":"address"}],"name":"setCollateral","outputs":[],"stateMutability":"nonpayable","type":"function"},{"inputs":[{"internalType":"address","name":"token_","type":"address"},{"internalType":"uint256","name":"status_","type":"uint256"}],"name":"setPoolStatus","outputs":[],"stateMutability":"nonpayable","type":"function"},{"inputs":[{"internalType":"address","name":"token_","type":"address"},{"internalType":"uint256","name":"amount_","type":"uint256"}],"name":"supply","outputs":[],"stateMutability":"nonpayable","type":"function"},{"inputs":[{"internalType":"address","name":"newOwner","type":"address"}],"name":"transferOwnership","outputs":[],"stateMutability":"nonpayable","type":"function"},{"inputs":[{"internalType":"address","name":"token_","type":"address"},{"internalType":"uint256","name":"amount_","type":"uint256"}],"name":"withdraw","outputs":[],"stateMutability":"nonpayable","type":"function"},{"inputs":[{"internalType":"address","name":"token_","type":"address"}],"name":"withdrawReserve","outputs":[],"stateMutability":"nonpayable","type":"function"}],"bytecode":"0x608060405234801561001057600080fd5b50615fea80620000216000396000f3fe608060405234801561001057600080fd5b50600436106101375760003560e01c80637b510fe8116100b8578063c660d1121161007c578063c660d1121461034c578063cc773ef81461037c578063eba6e165146103ac578063f2b9fdb8146103c8578063f2fde38b146103e4578063f3fef3a31461040057610137565b80637b510fe814610292578063886abef5146102c35780638da5cb5b146102df578063bbe4f6db146102fd578063c4d66de81461033057610137565b80634b8a3529116100ff5780634b8a3529146101f0578063528377b51461020c57806352a387ab1461023c5780636ad9f9df14610258578063715018a61461028857610137565b80630dfdbb211461013c578063117203b71461015857806312e20d031461018857806322867d78146101a4578063289379e2146101c0575b600080fd5b61015660048036038101906101519190614d06565b61041c565b005b610172600480360381019061016d9190614d46565b610646565b60405161017f9190614d95565b60405180910390f35b6101a2600480360381019061019d9190614db0565b61080e565b005b6101be60048036038101906101b99190614d06565b610de6565b005b6101da60048036038101906101d59190614d46565b611554565b6040516101e79190614d95565b60405180910390f35b61020a60048036038101906102059190614d06565b611661565b005b61022660048036038101906102219190614e17565b611c70565b6040516102339190614e5f565b60405180910390f35b61025660048036038101906102519190614e17565b611d06565b005b610272600480360381019061026d9190614e17565b611e90565b60405161027f9190614d95565b60405180910390f35b610290611f43565b005b6102ac60048036038101906102a79190614e17565b611f57565b6040516102ba929190614e7a565b60405180910390f35b6102dd60048036038101906102d89190614e17565b611f75565b005b6102e761209c565b6040516102f49190614eb2565b60405180910390f35b61031760048036038101906103129190614e17565b6120c6565b6040516103279493929190614f44565b60405180910390f35b61034a60048036038101906103459190614e17565b612191565b005b61036660048036038101906103619190614d06565b612319565b6040516103739190614d95565b60405180910390f35b61039660048036038101906103919190614d46565b6123b5565b6040516103a39190614d95565b60405180910390f35b6103c660048036038101906103c19190614f89565b612500565b005b6103e260048036038101906103dd9190614d06565b612c79565b005b6103fe60048036038101906103f99190614e17565b6131c9565b005b61041a60048036038101906104159190614d06565b61324c565b005b610424613a02565b81600073ffffffffffffffffffffffffffffffffffffffff168173ffffffffffffffffffffffffffffffffffffffff160361048b576040517f803faa7200000000000000000000000000000000000000000000000000000000815260040160405180910390fd5b6000609760008573ffffffffffffffffffffffffffffffffffffffff1673ffffffffffffffffffffffffffffffffffffffff1681526020019081526020016000209050600060028111156104e2576104e1614ecd565b5b830361051a5760008160000160006101000a81548160ff021916908360028111156105105761050f614ecd565b5b02179055506105f0565b6001600281111561052e5761052d614ecd565b5b83036105665760018160000160006101000a81548160ff0219169083600281111561055c5761055b614ecd565b5b02179055506105ef565b60028081111561057957610578614ecd565b5b83036105b15760028160000160006101000a81548160ff021916908360028111156105a7576105a6614ecd565b5b02179055506105ee565b826040517f6c29d38b0000000000000000000000000000000000000000000000000000000081526004016105e59190614d95565b60405180910390fd5b5b5b8373ffffffffffffffffffffffffffffffffffffffff167f0972b110d01da9db2cc90072237d49d0a30100e446a4afdede4cbe605a09b3548442604051610638929190614e7a565b60405180910390a250505050565b6000808273ffffffffffffffffffffffffffffffffffffffff166370a08231306040518263ffffffff1660e01b81526004016106829190614eb2565b602060405180830381865afa15801561069f573d6000803e3d6000fd5b505050506040513d601f19601f820116820180604052508101906106c39190615005565b9050609760008473ffffffffffffffffffffffffffffffffffffffff1673ffffffffffffffffffffffffffffffffffffffff16815260200190815260200160002060030154811015610741576040517f724413cd00000000000000000000000000000000000000000000000000000000815260040160405180910390fd5b73__$08abf2d50c1b0f62d9c9136b5f3a1f1411$__634baf2d65609760008673ffffffffffffffffffffffffffffffffffffffff1673ffffffffffffffffffffffffffffffffffffffff168152602001908152602001600020866107a487613a80565b856040518563ffffffff1660e01b81526004016107c49493929190615343565b602060405180830381865af41580156107e1573d6000803e3d6000fd5b505050506040513d601f19601f820116820180604052508101906108059190615005565b91505092915050565b826000609760008373ffffffffffffffffffffffffffffffffffffffff1673ffffffffffffffffffffffffffffffffffffffff1681526020019081526020016000209050600061085d83613a80565b90506000826001015490508173__$b4cafc809c0c4516e81e1b7a7f4901dbfc$__63761fdad69091836040518363ffffffff1660e01b81526004016108a392919061538c565b602060405180830381865af41580156108c0573d6000803e3d6000fd5b505050506040513d601f19601f820116820180604052508101906108e49190615005565b8360010181905550610903818460010154613cf490919063ffffffff16565b73__$b4cafc809c0c4516e81e1b7a7f4901dbfc$__63761fdad6909166b1a2bc2ec500006040518363ffffffff1660e01b815260040161094492919061538c565b602060405180830381865af4158015610961573d6000803e3d6000fd5b505050506040513d601f19601f820116820180604052508101906109859190615005565b83600301600082825461099891906153e4565b92505081905550428360040181905550856000609760008373ffffffffffffffffffffffffffffffffffffffff1673ffffffffffffffffffffffffffffffffffffffff168152602001908152602001600020905060006109f783613a80565b90506000826001015490508173__$b4cafc809c0c4516e81e1b7a7f4901dbfc$__63761fdad69091836040518363ffffffff1660e01b8152600401610a3d92919061538c565b602060405180830381865af4158015610a5a573d6000803e3d6000fd5b505050506040513d601f19601f82011682018060405250810190610a7e9190615005565b8360010181905550610a9d818460010154613cf490919063ffffffff16565b73__$b4cafc809c0c4516e81e1b7a7f4901dbfc$__63761fdad6909166b1a2bc2ec500006040518363ffffffff1660e01b8152600401610ade92919061538c565b602060405180830381865af4158015610afb573d6000803e3d6000fd5b505050506040513d601f19601f82011682018060405250810190610b1f9190615005565b836003016000828254610b3291906153e4565b92505081905550428360040181905550610b4a613d0a565b670de0b6b3a7640000610b5c8d611e90565b10610b6657600080fd5b60008c905060008b905060008d905060008c90506000609860008673ffffffffffffffffffffffffffffffffffffffff1673ffffffffffffffffffffffffffffffffffffffff16815260200190815260200160002060008473ffffffffffffffffffffffffffffffffffffffff1673ffffffffffffffffffffffffffffffffffffffff1681526020019081526020016000206001015490506000610c0984613d59565b90506000609860008873ffffffffffffffffffffffffffffffffffffffff1673ffffffffffffffffffffffffffffffffffffffff16815260200190815260200160002060008773ffffffffffffffffffffffffffffffffffffffff1673ffffffffffffffffffffffffffffffffffffffff16815260200190815260200160002060000160009054906101000a900460ff169050600080600073__$0137c94914bec00b16d1bfe5133529ae95$__63acf801c5609760008b73ffffffffffffffffffffffffffffffffffffffff1673ffffffffffffffffffffffffffffffffffffffff168152602001908152602001600020609760008d73ffffffffffffffffffffffffffffffffffffffff1673ffffffffffffffffffffffffffffffffffffffff168152602001908152602001600020898b6706f05b59d3b200008b8b6040518863ffffffff1660e01b8152600401610d689796959493929190615427565b606060405180830381865af4158015610d85573d6000803e3d6000fd5b505050506040513d601f19601f82011682018060405250810190610da9919061549d565b925092509250610dbd8a898b868686613f05565b610dc657600080fd5b50505050505050505050610dd8614353565b505050505050505050505050565b816000609760008373ffffffffffffffffffffffffffffffffffffffff1673ffffffffffffffffffffffffffffffffffffffff16815260200190815260200160002090506000610e3583613a80565b90506000826001015490508173__$b4cafc809c0c4516e81e1b7a7f4901dbfc$__63761fdad69091836040518363ffffffff1660e01b8152600401610e7b92919061538c565b602060405180830381865af4158015610e98573d6000803e3d6000fd5b505050506040513d601f19601f82011682018060405250810190610ebc9190615005565b8360010181905550610edb818460010154613cf490919063ffffffff16565b73__$b4cafc809c0c4516e81e1b7a7f4901dbfc$__63761fdad6909166b1a2bc2ec500006040518363ffffffff1660e01b8152600401610f1c92919061538c565b602060405180830381865af4158015610f39573d6000803e3d6000fd5b505050506040513d601f19601f82011682018060405250810190610f5d9190615005565b836003016000828254610f7091906153e4565b92505081905550428360040181905550610f88613d0a565b8560016002811115610f9d57610f9c614ecd565b5b609760008373ffffffffffffffffffffffffffffffffffffffff1673ffffffffffffffffffffffffffffffffffffffff16815260200190815260200160002060000160009054906101000a900460ff166002811115610fff57610ffe614ecd565b5b14158015611080575060028081111561101b5761101a614ecd565b5b609760008373ffffffffffffffffffffffffffffffffffffffff1673ffffffffffffffffffffffffffffffffffffffff16815260200190815260200160002060000160009054906101000a900460ff16600281111561107d5761107c614ecd565b5b14155b156110b7576040517f7d1ff86200000000000000000000000000000000000000000000000000000000815260040160405180910390fd5b6000609760008973ffffffffffffffffffffffffffffffffffffffff1673ffffffffffffffffffffffffffffffffffffffff168152602001908152602001600020905060008711611134576040517f6e0ccc0700000000000000000000000000000000000000000000000000000000815260040160405180910390fd5b6000609860003373ffffffffffffffffffffffffffffffffffffffff1673ffffffffffffffffffffffffffffffffffffffff16815260200190815260200160002060008a73ffffffffffffffffffffffffffffffffffffffff1673ffffffffffffffffffffffffffffffffffffffff168152602001908152602001600020600101549050600081116111f2576040517f9b4bb81b00000000000000000000000000000000000000000000000000000000815260040160405180910390fd5b60007fffffffffffffffffffffffffffffffffffffffffffffffffffffffffffffffff8903611243577fffffffffffffffffffffffffffffffffffffffffffffffffffffffffffffffff90506112c0565b73__$96f0c80dbc99cb8fdd941a8a8ae489d976$__63a3ee8d7d848b6040518363ffffffff1660e01b815260040161127c929190615623565b602060405180830381865af4158015611299573d6000803e3d6000fd5b505050506040513d601f19601f820116820180604052508101906112bd9190615005565b90505b60008282116112cf57816112d1565b825b9050600073__$96f0c80dbc99cb8fdd941a8a8ae489d976$__63c4ffd57b86846040518363ffffffff1660e01b815260040161130e929190615623565b602060405180830381865af415801561132b573d6000803e3d6000fd5b505050506040513d601f19601f8201168201806040525081019061134f9190615005565b905080856001016000828254611365919061564e565b9250508190555081856002016000828254611380919061564e565b9250508190555081609860003373ffffffffffffffffffffffffffffffffffffffff1673ffffffffffffffffffffffffffffffffffffffff16815260200190815260200160002060008e73ffffffffffffffffffffffffffffffffffffffff1673ffffffffffffffffffffffffffffffffffffffff1681526020019081526020016000206001016000828254611416919061564e565b9250508190555060008c73ffffffffffffffffffffffffffffffffffffffff166323b872dd3330856040518463ffffffff1660e01b815260040161145c93929190615682565b6020604051808303816000875af115801561147b573d6000803e3d6000fd5b505050506040513d601f19601f8201168201806040525081019061149f91906156e5565b9050806114d8576040517f6ef5c0af00000000000000000000000000000000000000000000000000000000815260040160405180910390fd5b8c73ffffffffffffffffffffffffffffffffffffffff163373ffffffffffffffffffffffffffffffffffffffff167f05f2eeda0e08e4b437f487c8d7d29b14537d15e3488170dc3de5dbdf8dac46848e6040516115359190614d95565b60405180910390a35050505050505061154c614353565b505050505050565b6000609860008473ffffffffffffffffffffffffffffffffffffffff1673ffffffffffffffffffffffffffffffffffffffff16815260200190815260200160002060008373ffffffffffffffffffffffffffffffffffffffff1673ffffffffffffffffffffffffffffffffffffffff1681526020019081526020016000206001015473__$b4cafc809c0c4516e81e1b7a7f4901dbfc$__63761fdad690916706f05b59d3b200006040518363ffffffff1660e01b815260040161161892919061538c565b602060405180830381865af4158015611635573d6000803e3d6000fd5b505050506040513d601f19601f820116820180604052508101906116599190615005565b905092915050565b816000609760008373ffffffffffffffffffffffffffffffffffffffff1673ffffffffffffffffffffffffffffffffffffffff168152602001908152602001600020905060006116b083613a80565b90506000826001015490508173__$b4cafc809c0c4516e81e1b7a7f4901dbfc$__63761fdad69091836040518363ffffffff1660e01b81526004016116f692919061538c565b602060405180830381865af4158015611713573d6000803e3d6000fd5b505050506040513d601f19601f820116820180604052508101906117379190615005565b8360010181905550611756818460010154613cf490919063ffffffff16565b73__$b4cafc809c0c4516e81e1b7a7f4901dbfc$__63761fdad6909166b1a2bc2ec500006040518363ffffffff1660e01b815260040161179792919061538c565b602060405180830381865af41580156117b4573d6000803e3d6000fd5b505050506040513d601f19601f820116820180604052508101906117d89190615005565b8360030160008282546117eb91906153e4565b92505081905550428360040181905550611803613d0a565b6000609760008873ffffffffffffffffffffffffffffffffffffffff1673ffffffffffffffffffffffffffffffffffffffff16815260200190815260200160002090506001600281111561185a57611859614ecd565b5b8160000160009054906101000a900460ff16600281111561187e5761187d614ecd565b5b146118b5576040517f7d1ff86200000000000000000000000000000000000000000000000000000000815260040160405180910390fd5b600086116118ef576040517f6e0ccc0700000000000000000000000000000000000000000000000000000000815260040160405180910390fd5b8673ffffffffffffffffffffffffffffffffffffffff166370a08231306040518263ffffffff1660e01b81526004016119289190614eb2565b602060405180830381865afa158015611945573d6000803e3d6000fd5b505050506040513d601f19601f820116820180604052508101906119699190615005565b8611156119a2576040517f70f1df7600000000000000000000000000000000000000000000000000000000815260040160405180910390fd5b600073__$96f0c80dbc99cb8fdd941a8a8ae489d976$__63ce5254a183896040518363ffffffff1660e01b81526004016119dd929190615623565b602060405180830381865af41580156119fa573d6000803e3d6000fd5b505050506040513d601f19601f82011682018060405250810190611a1e9190615005565b905080826002016000828254611a3491906153e4565b9250508190555086826001016000828254611a4f91906153e4565b9250508190555080609860003373ffffffffffffffffffffffffffffffffffffffff1673ffffffffffffffffffffffffffffffffffffffff16815260200190815260200160002060008a73ffffffffffffffffffffffffffffffffffffffff1673ffffffffffffffffffffffffffffffffffffffff1681526020019081526020016000206001016000828254611ae591906153e4565b9250508190555060008873ffffffffffffffffffffffffffffffffffffffff1663a9059cbb338a6040518363ffffffff1660e01b8152600401611b29929190615712565b6020604051808303816000875af1158015611b48573d6000803e3d6000fd5b505050506040513d601f19601f82011682018060405250810190611b6c91906156e5565b905080611ba5576040517f6ef5c0af00000000000000000000000000000000000000000000000000000000815260040160405180910390fd5b670de0b6b3a7640000611bb733611e90565b1015611bf8576040517f08c379a0000000000000000000000000000000000000000000000000000000008152600401611bef90615798565b60405180910390fd5b8873ffffffffffffffffffffffffffffffffffffffff163373ffffffffffffffffffffffffffffffffffffffff167f312a5e5e1079f5dda4e95dbbd0b908b291fd5b992ef22073643ab691572c5b528a604051611c559190614d95565b60405180910390a3505050611c68614353565b505050505050565b6000609860003373ffffffffffffffffffffffffffffffffffffffff1673ffffffffffffffffffffffffffffffffffffffff16815260200190815260200160002060008373ffffffffffffffffffffffffffffffffffffffff1673ffffffffffffffffffffffffffffffffffffffff16815260200190815260200160002060000160009054906101000a900460ff169050919050565b611d0e613a02565b80600073ffffffffffffffffffffffffffffffffffffffff168173ffffffffffffffffffffffffffffffffffffffff1603611d75576040517f803faa7200000000000000000000000000000000000000000000000000000000815260040160405180910390fd5b6000609760008473ffffffffffffffffffffffffffffffffffffffff1673ffffffffffffffffffffffffffffffffffffffff1681526020019081526020016000206003015490506000609760008573ffffffffffffffffffffffffffffffffffffffff1673ffffffffffffffffffffffffffffffffffffffff168152602001908152602001600020600301819055508273ffffffffffffffffffffffffffffffffffffffff1663a9059cbb33836040518363ffffffff1660e01b8152600401611e3f929190615712565b6020604051808303816000875af1158015611e5e573d6000803e3d6000fd5b505050506040513d601f19601f82011682018060405250810190611e8291906156e5565b611e8b57600080fd5b505050565b6000806000611e9e84611f57565b9150915060008103611ebd5768056bc75e2d6310000092505050611f3e565b8173__$b4cafc809c0c4516e81e1b7a7f4901dbfc$__63e57b6d3b9091836040518363ffffffff1660e01b8152600401611ef892919061538c565b602060405180830381865af4158015611f15573d6000803e3d6000fd5b505050506040513d601f19601f82011682018060405250810190611f399190615005565b925050505b919050565b611f4b613a02565b611f55600061435d565b565b600080611f6383614423565b611f6c84614791565b91509150915091565b609860003373ffffffffffffffffffffffffffffffffffffffff1673ffffffffffffffffffffffffffffffffffffffff16815260200190815260200160002060008273ffffffffffffffffffffffffffffffffffffffff1673ffffffffffffffffffffffffffffffffffffffff16815260200190815260200160002060000160009054906101000a900460ff1615609860003373ffffffffffffffffffffffffffffffffffffffff1673ffffffffffffffffffffffffffffffffffffffff16815260200190815260200160002060008373ffffffffffffffffffffffffffffffffffffffff1673ffffffffffffffffffffffffffffffffffffffff16815260200190815260200160002060000160006101000a81548160ff02191690831515021790555050565b6000603360009054906101000a900473ffffffffffffffffffffffffffffffffffffffff16905090565b60008060008073__$0137c94914bec00b16d1bfe5133529ae95$__636c349758609760008873ffffffffffffffffffffffffffffffffffffffff1673ffffffffffffffffffffffffffffffffffffffff1681526020019081526020016000206040518263ffffffff1660e01b815260040161214191906157b8565b608060405180830381865af415801561215e573d6000803e3d6000fd5b505050506040513d601f19601f82011682018060405250810190612182919061580e565b93509350935093509193509193565b60008060019054906101000a900460ff161590508080156121c25750600160008054906101000a900460ff1660ff16105b806121ef57506121d13061491b565b1580156121ee5750600160008054906101000a900460ff1660ff16145b5b61222e576040517f08c379a0000000000000000000000000000000000000000000000000000000008152600401612225906158e7565b60405180910390fd5b60016000806101000a81548160ff021916908360ff160217905550801561226b576001600060016101000a81548160ff0219169083151502179055505b61227361493e565b61227b614997565b81609b60006101000a81548173ffffffffffffffffffffffffffffffffffffffff021916908373ffffffffffffffffffffffffffffffffffffffff16021790555080156123155760008060016101000a81548160ff0219169083151502179055507f7f26b83ff96e1f2b6a682f133852f6798a09c465da95921460cefb3847402498600160405161230c919061594f565b60405180910390a15b5050565b60008273ffffffffffffffffffffffffffffffffffffffff1673__$a07b62fc6554bedc1c2bb30ca3e36905b5$__63c660d1129091846040518363ffffffff1660e01b815260040161236c92919061596a565b602060405180830381865af4158015612389573d6000803e3d6000fd5b505050506040513d601f19601f820116820180604052508101906123ad9190615005565b905092915050565b600073__$08abf2d50c1b0f62d9c9136b5f3a1f1411$__63d4f23322609760008573ffffffffffffffffffffffffffffffffffffffff1673ffffffffffffffffffffffffffffffffffffffff168152602001908152602001600020609860008773ffffffffffffffffffffffffffffffffffffffff1673ffffffffffffffffffffffffffffffffffffffff16815260200190815260200160002060008673ffffffffffffffffffffffffffffffffffffffff1673ffffffffffffffffffffffffffffffffffffffff1681526020019081526020016000206001015461249986613a80565b6040518463ffffffff1660e01b81526004016124b793929190615993565b602060405180830381865af41580156124d4573d6000803e3d6000fd5b505050506040513d601f19601f820116820180604052508101906124f89190615005565b905092915050565b612508613a02565b83600073ffffffffffffffffffffffffffffffffffffffff168173ffffffffffffffffffffffffffffffffffffffff160361256f576040517f803faa7200000000000000000000000000000000000000000000000000000000815260040160405180910390fd5b600073ffffffffffffffffffffffffffffffffffffffff168473ffffffffffffffffffffffffffffffffffffffff16036125d5576040517f444c3a1c00000000000000000000000000000000000000000000000000000000815260040160405180910390fd5b600073ffffffffffffffffffffffffffffffffffffffff168373ffffffffffffffffffffffffffffffffffffffff16148061263c5750600073ffffffffffffffffffffffffffffffffffffffff168273ffffffffffffffffffffffffffffffffffffffff16145b15612673576040517ff64f479000000000000000000000000000000000000000000000000000000000815260040160405180910390fd5b600080600090505b609a80549050811015612715578673ffffffffffffffffffffffffffffffffffffffff16609a82815481106126b3576126b26159cd565b5b9060005260206000200160009054906101000a900473ffffffffffffffffffffffffffffffffffffffff1673ffffffffffffffffffffffffffffffffffffffff16036127025760019150612715565b808061270d906159fc565b91505061267b565b5080612c71576000609b60009054906101000a900473ffffffffffffffffffffffffffffffffffffffff1673ffffffffffffffffffffffffffffffffffffffff1663bf79723f8873ffffffffffffffffffffffffffffffffffffffff166306fdde036040518163ffffffff1660e01b8152600401600060405180830381865afa1580156127a6573d6000803e3d6000fd5b505050506040513d6000823e3d601f19601f820116820180604052508101906127cf9190615ba5565b6040516020016127df9190615c81565b6040516020818303038152906040528973ffffffffffffffffffffffffffffffffffffffff166395d89b416040518163ffffffff1660e01b8152600401600060405180830381865afa158015612839573d6000803e3d6000fd5b505050506040513d6000823e3d601f19601f820116820180604052508101906128629190615ba5565b6040516020016128729190615c81565b6040516020818303038152906040526040518363ffffffff1660e01b815260040161289e929190615cdc565b6020604051808303816000875af11580156128bd573d6000803e3d6000fd5b505050506040513d601f19601f820116820180604052508101906128e19190615d51565b90506040518061014001604052806000600281111561290357612902614ecd565b5b81526020018773ffffffffffffffffffffffffffffffffffffffff1681526020016000815260200160008152602001600081526020014281526020018273ffffffffffffffffffffffffffffffffffffffff168152602001600081526020018673ffffffffffffffffffffffffffffffffffffffff1681526020018573ffffffffffffffffffffffffffffffffffffffff16815250609760008973ffffffffffffffffffffffffffffffffffffffff1673ffffffffffffffffffffffffffffffffffffffff16815260200190815260200160002060008201518160000160006101000a81548160ff02191690836002811115612a0257612a01614ecd565b5b021790555060208201518160000160016101000a81548173ffffffffffffffffffffffffffffffffffffffff021916908373ffffffffffffffffffffffffffffffffffffffff16021790555060408201518160010155606082015181600201556080820151816003015560a0820151816004015560c08201518160050160006101000a81548173ffffffffffffffffffffffffffffffffffffffff021916908373ffffffffffffffffffffffffffffffffffffffff16021790555060e082015181600601556101008201518160070160006101000a81548173ffffffffffffffffffffffffffffffffffffffff021916908373ffffffffffffffffffffffffffffffffffffffff1602179055506101208201518160080160006101000a81548173ffffffffffffffffffffffffffffffffffffffff021916908373ffffffffffffffffffffffffffffffffffffffff160217905550905050609a879080600181540180825580915050600190039060005260206000200160009091909190916101000a81548173ffffffffffffffffffffffffffffffffffffffff021916908373ffffffffffffffffffffffffffffffffffffffff1602179055506001609960008973ffffffffffffffffffffffffffffffffffffffff1673ffffffffffffffffffffffffffffffffffffffff16815260200190815260200160002060006101000a81548160ff0219169083151502179055508573ffffffffffffffffffffffffffffffffffffffff168773ffffffffffffffffffffffffffffffffffffffff167f70114b43b09bb480eacf7eeb7555d38ec184bb87fb002a8d652b00017e8a57b960405160405180910390a3505b505050505050565b816000609760008373ffffffffffffffffffffffffffffffffffffffff1673ffffffffffffffffffffffffffffffffffffffff16815260200190815260200160002090506000612cc883613a80565b90506000826001015490508173__$b4cafc809c0c4516e81e1b7a7f4901dbfc$__63761fdad69091836040518363ffffffff1660e01b8152600401612d0e92919061538c565b602060405180830381865af4158015612d2b573d6000803e3d6000fd5b505050506040513d601f19601f82011682018060405250810190612d4f9190615005565b8360010181905550612d6e818460010154613cf490919063ffffffff16565b73__$b4cafc809c0c4516e81e1b7a7f4901dbfc$__63761fdad6909166b1a2bc2ec500006040518363ffffffff1660e01b8152600401612daf92919061538c565b602060405180830381865af4158015612dcc573d6000803e3d6000fd5b505050506040513d601f19601f82011682018060405250810190612df09190615005565b836003016000828254612e0391906153e4565b92505081905550428360040181905550612e1b613d0a565b60016002811115612e2f57612e2e614ecd565b5b609760008873ffffffffffffffffffffffffffffffffffffffff1673ffffffffffffffffffffffffffffffffffffffff16815260200190815260200160002060000160009054906101000a900460ff166002811115612e9157612e90614ecd565b5b14612ec8576040517f7d1ff86200000000000000000000000000000000000000000000000000000000815260040160405180910390fd5b60008511612f02576040517f6e0ccc0700000000000000000000000000000000000000000000000000000000815260040160405180910390fd5b600073__$96f0c80dbc99cb8fdd941a8a8ae489d976$__63e3818967609760008a73ffffffffffffffffffffffffffffffffffffffff1673ffffffffffffffffffffffffffffffffffffffff168152602001908152602001600020612f668a613d59565b896040518463ffffffff1660e01b8152600401612f8593929190615993565b602060405180830381865af4158015612fa2573d6000803e3d6000fd5b505050506040513d601f19601f82011682018060405250810190612fc69190615005565b9050609760008873ffffffffffffffffffffffffffffffffffffffff1673ffffffffffffffffffffffffffffffffffffffff16815260200190815260200160002060050160009054906101000a900473ffffffffffffffffffffffffffffffffffffffff1673ffffffffffffffffffffffffffffffffffffffff166340c10f1933836040518363ffffffff1660e01b8152600401613065929190615712565b600060405180830381600087803b15801561307f57600080fd5b505af1158015613093573d6000803e3d6000fd5b5050505060008773ffffffffffffffffffffffffffffffffffffffff166323b872dd33308a6040518463ffffffff1660e01b81526004016130d693929190615682565b6020604051808303816000875af11580156130f5573d6000803e3d6000fd5b505050506040513d601f19601f8201168201806040525081019061311991906156e5565b905080613152576040517f6ef5c0af00000000000000000000000000000000000000000000000000000000815260040160405180910390fd5b8773ffffffffffffffffffffffffffffffffffffffff163373ffffffffffffffffffffffffffffffffffffffff167f5548c837ab068cf56a2c2479df0882a4922fd203edb7517321831d95078c5f62896040516131af9190614d95565b60405180910390a350506131c1614353565b505050505050565b6131d1613a02565b600073ffffffffffffffffffffffffffffffffffffffff168173ffffffffffffffffffffffffffffffffffffffff1603613240576040517f08c379a000000000000000000000000000000000000000000000000000000000815260040161323790615df0565b60405180910390fd5b6132498161435d565b50565b816000609760008373ffffffffffffffffffffffffffffffffffffffff1673ffffffffffffffffffffffffffffffffffffffff1681526020019081526020016000209050600061329b83613a80565b90506000826001015490508173__$b4cafc809c0c4516e81e1b7a7f4901dbfc$__63761fdad69091836040518363ffffffff1660e01b81526004016132e192919061538c565b602060405180830381865af41580156132fe573d6000803e3d6000fd5b505050506040513d601f19601f820116820180604052508101906133229190615005565b8360010181905550613341818460010154613cf490919063ffffffff16565b73__$b4cafc809c0c4516e81e1b7a7f4901dbfc$__63761fdad6909166b1a2bc2ec500006040518363ffffffff1660e01b815260040161338292919061538c565b602060405180830381865af415801561339f573d6000803e3d6000fd5b505050506040513d601f19601f820116820180604052508101906133c39190615005565b8360030160008282546133d691906153e4565b925050819055504283600401819055506133ee613d0a565b856001600281111561340357613402614ecd565b5b609760008373ffffffffffffffffffffffffffffffffffffffff1673ffffffffffffffffffffffffffffffffffffffff16815260200190815260200160002060000160009054906101000a900460ff16600281111561346557613464614ecd565b5b141580156134e6575060028081111561348157613480614ecd565b5b609760008373ffffffffffffffffffffffffffffffffffffffff1673ffffffffffffffffffffffffffffffffffffffff16815260200190815260200160002060000160009054906101000a900460ff1660028111156134e3576134e2614ecd565b5b14155b1561351d576040517f7d1ff86200000000000000000000000000000000000000000000000000000000815260040160405180910390fd5b6000609760008973ffffffffffffffffffffffffffffffffffffffff1673ffffffffffffffffffffffffffffffffffffffff16815260200190815260200160002090506000871161359a576040517f6e0ccc0700000000000000000000000000000000000000000000000000000000815260040160405180910390fd5b60008160050160009054906101000a900473ffffffffffffffffffffffffffffffffffffffff1673ffffffffffffffffffffffffffffffffffffffff166370a08231336040518263ffffffff1660e01b81526004016135f99190614eb2565b602060405180830381865afa158015613616573d6000803e3d6000fd5b505050506040513d601f19601f8201168201806040525081019061363a9190615005565b905060008111613676576040517f9b4bb81b00000000000000000000000000000000000000000000000000000000815260040160405180910390fd5b60007fffffffffffffffffffffffffffffffffffffffffffffffffffffffffffffffff89036136c7577fffffffffffffffffffffffffffffffffffffffffffffffffffffffffffffffff905061374e565b73__$96f0c80dbc99cb8fdd941a8a8ae489d976$__63e3818967846136eb8d613d59565b8c6040518463ffffffff1660e01b815260040161370a93929190615e10565b602060405180830381865af4158015613727573d6000803e3d6000fd5b505050506040513d601f19601f8201168201806040525081019061374b9190615005565b90505b600082821161375d578161375f565b825b9050600073__$96f0c80dbc99cb8fdd941a8a8ae489d976$__63ddb5aaff866137878f613d59565b856040518463ffffffff1660e01b81526004016137a693929190615e10565b602060405180830381865af41580156137c3573d6000803e3d6000fd5b505050506040513d601f19601f820116820180604052508101906137e79190615005565b90508460050160009054906101000a900473ffffffffffffffffffffffffffffffffffffffff1673ffffffffffffffffffffffffffffffffffffffff16639dc29fac33846040518363ffffffff1660e01b8152600401613848929190615712565b600060405180830381600087803b15801561386257600080fd5b505af1158015613876573d6000803e3d6000fd5b5050505060008c73ffffffffffffffffffffffffffffffffffffffff1663a9059cbb33846040518363ffffffff1660e01b81526004016138b7929190615712565b6020604051808303816000875af11580156138d6573d6000803e3d6000fd5b505050506040513d601f19601f820116820180604052508101906138fa91906156e5565b905080613933576040517f6ef5c0af00000000000000000000000000000000000000000000000000000000815260040160405180910390fd5b670de0b6b3a764000061394533611e90565b1015613986576040517f08c379a000000000000000000000000000000000000000000000000000000000815260040161397d90615798565b60405180910390fd5b8c73ffffffffffffffffffffffffffffffffffffffff163373ffffffffffffffffffffffffffffffffffffffff167f9b1bfa7fa9ee420a16e124f794c35ac9f90472acc99140eb2f6447c714cad8eb846040516139e39190614d95565b60405180910390a3505050505050506139fa614353565b505050505050565b613a0a6149f0565b73ffffffffffffffffffffffffffffffffffffffff16613a2861209c565b73ffffffffffffffffffffffffffffffffffffffff1614613a7e576040517f08c379a0000000000000000000000000000000000000000000000000000000008152600401613a7590615e96565b60405180910390fd5b565b600081600073ffffffffffffffffffffffffffffffffffffffff168173ffffffffffffffffffffffffffffffffffffffff1603613ae9576040517f803faa7200000000000000000000000000000000000000000000000000000000815260040160405180910390fd5b609960008473ffffffffffffffffffffffffffffffffffffffff1673ffffffffffffffffffffffffffffffffffffffff16815260200190815260200160002060009054906101000a900460ff16613b6c576040517fa96e157b00000000000000000000000000000000000000000000000000000000815260040160405180910390fd5b6000609760008573ffffffffffffffffffffffffffffffffffffffff1673ffffffffffffffffffffffffffffffffffffffff16815260200190815260200160002060000160019054906101000a900473ffffffffffffffffffffffffffffffffffffffff1673ffffffffffffffffffffffffffffffffffffffff16631a792944609760008773ffffffffffffffffffffffffffffffffffffffff1673ffffffffffffffffffffffffffffffffffffffff16815260200190815260200160002060010154613c3887613d59565b6040518363ffffffff1660e01b8152600401613c55929190614e7a565b602060405180830381865afa158015613c72573d6000803e3d6000fd5b505050506040513d601f19601f82011682018060405250810190613c969190615005565b90506000613ce782609760008873ffffffffffffffffffffffffffffffffffffffff1673ffffffffffffffffffffffffffffffffffffffff16815260200190815260200160002060040154426149f8565b9050809350505050919050565b60008183613d02919061564e565b905092915050565b600260655403613d4f576040517f08c379a0000000000000000000000000000000000000000000000000000000008152600401613d4690615f02565b60405180910390fd5b6002606581905550565b6000808273ffffffffffffffffffffffffffffffffffffffff166370a08231306040518263ffffffff1660e01b8152600401613d959190614eb2565b602060405180830381865afa158015613db2573d6000803e3d6000fd5b505050506040513d601f19601f82011682018060405250810190613dd69190615005565b9050609760008473ffffffffffffffffffffffffffffffffffffffff1673ffffffffffffffffffffffffffffffffffffffff16815260200190815260200160002060030154811015613e54576040517f724413cd00000000000000000000000000000000000000000000000000000000815260040160405180910390fd5b613efd613eac609760008673ffffffffffffffffffffffffffffffffffffffff1673ffffffffffffffffffffffffffffffffffffffff1681526020019081526020016000206003015483613cf490919063ffffffff16565b609760008673ffffffffffffffffffffffffffffffffffffffff1673ffffffffffffffffffffffffffffffffffffffff16815260200190815260200160002060010154614b8e90919063ffffffff16565b915050919050565b600080609760008873ffffffffffffffffffffffffffffffffffffffff1673ffffffffffffffffffffffffffffffffffffffff16815260200190815260200160002090506000609760008873ffffffffffffffffffffffffffffffffffffffff1673ffffffffffffffffffffffffffffffffffffffff16815260200190815260200160002090508773ffffffffffffffffffffffffffffffffffffffff166323b872dd3330886040518463ffffffff1660e01b8152600401613fc993929190615682565b6020604051808303816000875af1158015613fe8573d6000803e3d6000fd5b505050506040513d601f19601f8201168201806040525081019061400c91906156e5565b61401557600080fd5b858160050160009054906101000a900473ffffffffffffffffffffffffffffffffffffffff1673ffffffffffffffffffffffffffffffffffffffff166370a082318b6040518263ffffffff1660e01b81526004016140739190614eb2565b602060405180830381865afa158015614090573d6000803e3d6000fd5b505050506040513d601f19601f820116820180604052508101906140b49190615005565b10156140ec576040517f9b4bb81b00000000000000000000000000000000000000000000000000000000815260040160405180910390fd5b8060050160009054906101000a900473ffffffffffffffffffffffffffffffffffffffff1673ffffffffffffffffffffffffffffffffffffffff16639dc29fac8a886040518363ffffffff1660e01b815260040161414b929190615712565b600060405180830381600087803b15801561416557600080fd5b505af1158015614179573d6000803e3d6000fd5b505050508060050160009054906101000a900473ffffffffffffffffffffffffffffffffffffffff1673ffffffffffffffffffffffffffffffffffffffff166340c10f1933886040518363ffffffff1660e01b81526004016141dc929190615712565b600060405180830381600087803b1580156141f657600080fd5b505af115801561420a573d6000803e3d6000fd5b5050505084826001016000828254614222919061564e565b925050819055508382600201600082825461423d919061564e565b9250508190555083609860008b73ffffffffffffffffffffffffffffffffffffffff1673ffffffffffffffffffffffffffffffffffffffff16815260200190815260200160002060008a73ffffffffffffffffffffffffffffffffffffffff1673ffffffffffffffffffffffffffffffffffffffff16815260200190815260200160002060010160008282546142d3919061564e565b925050819055503373ffffffffffffffffffffffffffffffffffffffff168973ffffffffffffffffffffffffffffffffffffffff167ffec519aedf71f43b9532051902313c598fc69c93aeac23cafe3baf2f9ff0b3418a8a8860405161433b93929190615682565b60405180910390a36001925050509695505050505050565b6001606581905550565b6000603360009054906101000a900473ffffffffffffffffffffffffffffffffffffffff16905081603360006101000a81548173ffffffffffffffffffffffffffffffffffffffff021916908373ffffffffffffffffffffffffffffffffffffffff1602179055508173ffffffffffffffffffffffffffffffffffffffff168173ffffffffffffffffffffffffffffffffffffffff167f8be0079c531659141344cd1fd0a4f28419497f9722a3daafe3b4186f6b6457e060405160405180910390a35050565b60008060005b609a80549050811015614787576000609a828154811061444c5761444b6159cd565b5b9060005260206000200160009054906101000a900473ffffffffffffffffffffffffffffffffffffffff169050609860008673ffffffffffffffffffffffffffffffffffffffff1673ffffffffffffffffffffffffffffffffffffffff16815260200190815260200160002060008273ffffffffffffffffffffffffffffffffffffffff1673ffffffffffffffffffffffffffffffffffffffff16815260200190815260200160002060000160009054906101000a900460ff16156147735760006145178683610646565b90506000609760008473ffffffffffffffffffffffffffffffffffffffff1673ffffffffffffffffffffffffffffffffffffffff16815260200190815260200160002060070160009054906101000a900473ffffffffffffffffffffffffffffffffffffffff1673ffffffffffffffffffffffffffffffffffffffff1673__$a07b62fc6554bedc1c2bb30ca3e36905b5$__6340c09c769091846040518363ffffffff1660e01b81526004016145ce92919061596a565b602060405180830381865af41580156145eb573d6000803e3d6000fd5b505050506040513d601f19601f8201168201806040525081019061460f9190615005565b905060008173__$b4cafc809c0c4516e81e1b7a7f4901dbfc$__63761fdad69091609760008873ffffffffffffffffffffffffffffffffffffffff1673ffffffffffffffffffffffffffffffffffffffff16815260200190815260200160002060000160019054906101000a900473ffffffffffffffffffffffffffffffffffffffff1673ffffffffffffffffffffffffffffffffffffffff16634031234c6040518163ffffffff1660e01b8152600401602060405180830381865afa1580156146dd573d6000803e3d6000fd5b505050506040513d601f19601f820116820180604052508101906147019190615005565b6040518363ffffffff1660e01b815260040161471e92919061538c565b602060405180830381865af415801561473b573d6000803e3d6000fd5b505050506040513d601f19601f8201168201806040525081019061475f9190615005565b9050808661476d91906153e4565b95505050505b50808061477f906159fc565b915050614429565b5080915050919050565b60008060005b609a80549050811015614911576000609a82815481106147ba576147b96159cd565b5b9060005260206000200160009054906101000a900473ffffffffffffffffffffffffffffffffffffffff16905060006147f386836123b5565b90506000609760008473ffffffffffffffffffffffffffffffffffffffff1673ffffffffffffffffffffffffffffffffffffffff16815260200190815260200160002060070160009054906101000a900473ffffffffffffffffffffffffffffffffffffffff1673ffffffffffffffffffffffffffffffffffffffff1673__$a07b62fc6554bedc1c2bb30ca3e36905b5$__6340c09c769091846040518363ffffffff1660e01b81526004016148aa92919061596a565b602060405180830381865af41580156148c7573d6000803e3d6000fd5b505050506040513d601f19601f820116820180604052508101906148eb9190615005565b905080856148f991906153e4565b94505050508080614909906159fc565b915050614797565b5080915050919050565b6000808273ffffffffffffffffffffffffffffffffffffffff163b119050919050565b600060019054906101000a900460ff1661498d576040517f08c379a000000000000000000000000000000000000000000000000000000000815260040161498490615f94565b60405180910390fd5b614995614ba4565b565b600060019054906101000a900460ff166149e6576040517f08c379a00000000000000000000000000000000000000000000000000000000081526004016149dd90615f94565b60405180910390fd5b6149ee614c05565b565b600033905090565b6000614b8573__$b4cafc809c0c4516e81e1b7a7f4901dbfc$__633dca36386040518163ffffffff1660e01b8152600401602060405180830381865af4158015614a46573d6000803e3d6000fd5b505050506040513d601f19601f82011682018060405250810190614a6a9190615005565b8573__$b4cafc809c0c4516e81e1b7a7f4901dbfc$__63761fdad69091614a9a8888613cf490919063ffffffff16565b6040518363ffffffff1660e01b8152600401614ab792919061538c565b602060405180830381865af4158015614ad4573d6000803e3d6000fd5b505050506040513d601f19601f82011682018060405250810190614af89190615005565b73__$b4cafc809c0c4516e81e1b7a7f4901dbfc$__63e57b6d3b90916301e133806040518363ffffffff1660e01b8152600401614b3692919061538c565b602060405180830381865af4158015614b53573d6000803e3d6000fd5b505050506040513d601f19601f82011682018060405250810190614b779190615005565b614b8e90919063ffffffff16565b90509392505050565b60008183614b9c91906153e4565b905092915050565b600060019054906101000a900460ff16614bf3576040517f08c379a0000000000000000000000000000000000000000000000000000000008152600401614bea90615f94565b60405180910390fd5b614c03614bfe6149f0565b61435d565b565b600060019054906101000a900460ff16614c54576040517f08c379a0000000000000000000000000000000000000000000000000000000008152600401614c4b90615f94565b60405180910390fd5b6001606581905550565b6000604051905090565b600080fd5b600080fd5b600073ffffffffffffffffffffffffffffffffffffffff82169050919050565b6000614c9d82614c72565b9050919050565b614cad81614c92565b8114614cb857600080fd5b50565b600081359050614cca81614ca4565b92915050565b6000819050919050565b614ce381614cd0565b8114614cee57600080fd5b50565b600081359050614d0081614cda565b92915050565b60008060408385031215614d1d57614d1c614c68565b5b6000614d2b85828601614cbb565b9250506020614d3c85828601614cf1565b9150509250929050565b60008060408385031215614d5d57614d5c614c68565b5b6000614d6b85828601614cbb565b9250506020614d7c85828601614cbb565b9150509250929050565b614d8f81614cd0565b82525050565b6000602082019050614daa6000830184614d86565b92915050565b60008060008060808587031215614dca57614dc9614c68565b5b6000614dd887828801614cbb565b9450506020614de987828801614cbb565b9350506040614dfa87828801614cbb565b9250506060614e0b87828801614cf1565b91505092959194509250565b600060208284031215614e2d57614e2c614c68565b5b6000614e3b84828501614cbb565b91505092915050565b60008115159050919050565b614e5981614e44565b82525050565b6000602082019050614e746000830184614e50565b92915050565b6000604082019050614e8f6000830185614d86565b614e9c6020830184614d86565b9392505050565b614eac81614c92565b82525050565b6000602082019050614ec76000830184614ea3565b92915050565b7f4e487b7100000000000000000000000000000000000000000000000000000000600052602160045260246000fd5b60038110614f0d57614f0c614ecd565b5b50565b6000819050614f1e82614efc565b919050565b6000614f2e82614f10565b9050919050565b614f3e81614f23565b82525050565b6000608082019050614f596000830187614f35565b614f666020830186614ea3565b614f736040830185614ea3565b614f806060830184614ea3565b95945050505050565b60008060008060808587031215614fa357614fa2614c68565b5b6000614fb187828801614cbb565b9450506020614fc287828801614cbb565b9350506040614fd387828801614cbb565b9250506060614fe487828801614cbb565b91505092959194509250565b600081519050614fff81614cda565b92915050565b60006020828403121561501b5761501a614c68565b5b600061502984828501614ff0565b91505092915050565b60008160001c9050919050565b600060ff82169050919050565b600061505f61505a83615032565b61503f565b9050919050565b61506f81614f23565b82525050565b60008160081c9050919050565b600073ffffffffffffffffffffffffffffffffffffffff82169050919050565b60006150b56150b083615075565b615082565b9050919050565b6000819050919050565b60006150e16150dc6150d784614c72565b6150bc565b614c72565b9050919050565b60006150f3826150c6565b9050919050565b6000615105826150e8565b9050919050565b615115816150fa565b82525050565b6000819050919050565b600061513861513383615032565b61511b565b9050919050565b61514881614cd0565b82525050565b600073ffffffffffffffffffffffffffffffffffffffff82169050919050565b600061518161517c83615032565b61514e565b9050919050565b6000615193826150e8565b9050919050565b6151a381615188565b82525050565b600073ffffffffffffffffffffffffffffffffffffffff82169050919050565b60006151dc6151d783615032565b6151a9565b9050919050565b6151ec81614c92565b82525050565b610140820160008083015490506152088161504c565b6152156000860182615066565b5061521f816150a2565b61522c602086018261510c565b506001830154905061523d81615125565b61524a604086018261513f565b506002830154905061525b81615125565b615268606086018261513f565b506003830154905061527981615125565b615286608086018261513f565b506004830154905061529781615125565b6152a460a086018261513f565b50600583015490506152b58161516e565b6152c260c086018261519a565b50600683015490506152d381615125565b6152e060e086018261513f565b50600783015490506152f1816151c9565b6152ff6101008601826151e3565b5060088301549050615310816151c9565b61531e6101208601826151e3565b5050505050565b61532e81614c92565b82525050565b61533d81614cd0565b82525050565b60006101a08201905061535960008301876151f2565b615367610140830186615325565b615375610160830185615334565b615383610180830184615334565b95945050505050565b60006040820190506153a16000830185615334565b6153ae6020830184615334565b9392505050565b7f4e487b7100000000000000000000000000000000000000000000000000000000600052601160045260246000fd5b60006153ef82614cd0565b91506153fa83614cd0565b9250828201905080821115615412576154116153b5565b5b92915050565b61542181614e44565b82525050565b60006103208201905061543d600083018a6151f2565b61544b6101408301896151f2565b615459610280830188615334565b6154676102a0830187615334565b6154756102c0830186615334565b6154836102e0830185615334565b615491610300830184615418565b98975050505050505050565b6000806000606084860312156154b6576154b5614c68565b5b60006154c486828701614ff0565b93505060206154d586828701614ff0565b92505060406154e686828701614ff0565b9150509250925092565b610140820160008083015490506155068161504c565b6155136000860182615066565b5061551d816150a2565b61552a602086018261510c565b506001830154905061553b81615125565b615548604086018261513f565b506002830154905061555981615125565b615566606086018261513f565b506003830154905061557781615125565b615584608086018261513f565b506004830154905061559581615125565b6155a260a086018261513f565b50600583015490506155b38161516e565b6155c060c086018261519a565b50600683015490506155d181615125565b6155de60e086018261513f565b50600783015490506155ef816151c9565b6155fd6101008601826151e3565b506008830154905061560e816151c9565b61561c6101208601826151e3565b5050505050565b60006101608201905061563960008301856154f0565b615647610140830184615334565b9392505050565b600061565982614cd0565b915061566483614cd0565b925082820390508181111561567c5761567b6153b5565b5b92915050565b60006060820190506156976000830186614ea3565b6156a46020830185614ea3565b6156b16040830184614d86565b949350505050565b6156c281614e44565b81146156cd57600080fd5b50565b6000815190506156df816156b9565b92915050565b6000602082840312156156fb576156fa614c68565b5b6000615709848285016156d0565b91505092915050565b60006040820190506157276000830185614ea3565b6157346020830184614d86565b9392505050565b600082825260208201905092915050565b7f4163636f756e74206973206e6f74206865616c74687900000000000000000000600082015250565b600061578260168361573b565b915061578d8261574c565b602082019050919050565b600060208201905081810360008301526157b181615775565b9050919050565b6000610140820190506157ce60008301846151f2565b92915050565b600381106157e157600080fd5b50565b6000815190506157f3816157d4565b92915050565b60008151905061580881614ca4565b92915050565b6000806000806080858703121561582857615827614c68565b5b6000615836878288016157e4565b9450506020615847878288016157f9565b9350506040615858878288016157f9565b9250506060615869878288016157f9565b91505092959194509250565b7f496e697469616c697a61626c653a20636f6e747261637420697320616c72656160008201527f647920696e697469616c697a6564000000000000000000000000000000000000602082015250565b60006158d1602e8361573b565b91506158dc82615875565b604082019050919050565b60006020820190508181036000830152615900816158c4565b9050919050565b6000819050919050565b600060ff82169050919050565b600061593961593461592f84615907565b6150bc565b615911565b9050919050565b6159498161591e565b82525050565b60006020820190506159646000830184615940565b92915050565b600060408201905061597f6000830185615325565b61598c6020830184615334565b9392505050565b6000610180820190506159a960008301866151f2565b6159b7610140830185615334565b6159c5610160830184615334565b949350505050565b7f4e487b7100000000000000000000000000000000000000000000000000000000600052603260045260246000fd5b6000615a0782614cd0565b91507fffffffffffffffffffffffffffffffffffffffffffffffffffffffffffffffff8203615a3957615a386153b5565b5b600182019050919050565b600080fd5b600080fd5b6000601f19601f8301169050919050565b7f4e487b7100000000000000000000000000000000000000000000000000000000600052604160045260246000fd5b615a9782615a4e565b810181811067ffffffffffffffff82111715615ab657615ab5615a5f565b5b80604052505050565b6000615ac9614c5e565b9050615ad58282615a8e565b919050565b600067ffffffffffffffff821115615af557615af4615a5f565b5b615afe82615a4e565b9050602081019050919050565b60005b83811015615b29578082015181840152602081019050615b0e565b60008484015250505050565b6000615b48615b4384615ada565b615abf565b905082815260208101848484011115615b6457615b63615a49565b5b615b6f848285615b0b565b509392505050565b600082601f830112615b8c57615b8b615a44565b5b8151615b9c848260208601615b35565b91505092915050565b600060208284031215615bbb57615bba614c68565b5b600082015167ffffffffffffffff811115615bd957615bd8614c6d565b5b615be584828501615b77565b91505092915050565b600081905092915050565b7f7300000000000000000000000000000000000000000000000000000000000000600082015250565b6000615c2f600183615bee565b9150615c3a82615bf9565b600182019050919050565b600081519050919050565b6000615c5b82615c45565b615c658185615bee565b9350615c75818560208601615b0b565b80840191505092915050565b6000615c8c82615c22565b9150615c988284615c50565b915081905092915050565b6000615cae82615c45565b615cb8818561573b565b9350615cc8818560208601615b0b565b615cd181615a4e565b840191505092915050565b60006040820190508181036000830152615cf68185615ca3565b90508181036020830152615d0a8184615ca3565b90509392505050565b6000615d1e82614c92565b9050919050565b615d2e81615d13565b8114615d3957600080fd5b50565b600081519050615d4b81615d25565b92915050565b600060208284031215615d6757615d66614c68565b5b6000615d7584828501615d3c565b91505092915050565b7f4f776e61626c653a206e6577206f776e657220697320746865207a65726f206160008201527f6464726573730000000000000000000000000000000000000000000000000000602082015250565b6000615dda60268361573b565b9150615de582615d7e565b604082019050919050565b60006020820190508181036000830152615e0981615dcd565b9050919050565b600061018082019050615e2660008301866154f0565b615e34610140830185615334565b615e42610160830184615334565b949350505050565b7f4f776e61626c653a2063616c6c6572206973206e6f7420746865206f776e6572600082015250565b6000615e8060208361573b565b9150615e8b82615e4a565b602082019050919050565b60006020820190508181036000830152615eaf81615e73565b9050919050565b7f5265656e7472616e637947756172643a207265656e7472616e742063616c6c00600082015250565b6000615eec601f8361573b565b9150615ef782615eb6565b602082019050919050565b60006020820190508181036000830152615f1b81615edf565b9050919050565b7f496e697469616c697a61626c653a20636f6e7472616374206973206e6f74206960008201527f6e697469616c697a696e67000000000000000000000000000000000000000000602082015250565b6000615f7e602b8361573b565b9150615f8982615f22565b604082019050919050565b60006020820190508181036000830152615fad81615f71565b905091905056fea26469706673582212207a75c9b179feb3644ca2b7aaee34e5b5d25177312c0edc7ad32a0998d035131464736f6c63430008110033","linkReferences":{"contracts/libraries/AmountShareConvertor.sol":{"AmountShareConvertor":[{"length":20,"start":4710},{"length":20,"start":4856},{"length":20,"start":6599},{"length":20,"start":12071},{"length":20,"start":14058},{"length":20,"start":14214}]},"contracts/libraries/CompoundInterestCalculator.sol":{"CompoundInterestCalculator":[{"length":20,"start":1892},{"length":20,"start":9178}]},"contracts/libraries/LendingPoolHelper.sol":{"LendingPoolHelper":[{"length":20,"start":3268},{"length":20,"start":8431}]},"contracts/libraries/Oracle.sol":{"Oracle":[{"length":20,"start":9045},{"length":20,"start":17847},{"length":20,"start":18579}]},"contracts/libraries/WadMath.sol":{"WadMath":[{"length":20,"start":2188},{"length":20,"start":2342},{"length":20,"start":2598},{"length":20,"start":2752},{"length":20,"start":3684},{"length":20,"start":3838},{"length":20,"start":5625},{"length":20,"start":5855},{"length":20,"start":6009},{"length":20,"start":7905},{"length":20,"start":11511},{"length":20,"start":11665},{"length":20,"start":13002},{"length":20,"start":13156},{"length":20,"start":17975},{"length":20,"start":18976},{"length":20,"start":19086},{"length":20,"start":19227}]}},"deployedLinkReferences":{"contracts/libraries/AmountShareConvertor.sol":{"AmountShareConvertor":[{"length":20,"start":4677},{"length":20,"start":4823},{"length":20,"start":6566},{"length":20,"start":12038},{"length":20,"start":14025},{"length":20,"start":14181}]},"contracts/libraries/CompoundInterestCalculator.sol":{"CompoundInterestCalculator":[{"length":20,"start":1859},{"length":20,"start":9145}]},"contracts/libraries/LendingPoolHelper.sol":{"LendingPoolHelper":[{"length":20,"start":3235},{"length":20,"start":8398}]},"contracts/libraries/Oracle.sol":{"Oracle":[{"length":20,"start":9012},{"length":20,"start":17814},{"length":20,"start":18546}]},"contracts/libraries/WadMath.sol":{"WadMath":[{"length":20,"start":2155},{"length":20,"start":2309},{"length":20,"start":2565},{"length":20,"start":2719},{"length":20,"start":3651},{"length":20,"start":3805},{"length":20,"start":5592},{"length":20,"start":5822},{"length":20,"start":5976},{"length":20,"start":7872},{"length":20,"start":11478},{"length":20,"start":11632},{"length":20,"start":12969},{"length":20,"start":13123},{"length":20,"start":17942},{"length":20,"start":18943},{"length":20,"start":19053},{"length":20,"start":19194}]}}}