{"_format":"hh-sol-artifact-1","contractName":"LendingPool","sourceName":"contracts/LendingPool.sol","abi":[{"inputs":[],"name":"AssetTransferFail","type":"error"},{"inputs":[],"name":"NotEnoughLiquidityError","type":"error"},{"inputs":[{"internalType":"uint256","name":"","type":"uint256"}],"name":"NotExistedStatus","type":"error"},{"inputs":[],"name":"OnlyReservesInPoolError","type":"error"},{"inputs":[],"name":"PoolNotActivatedError","type":"error"},{"inputs":[],"name":"TokenNotAllowedError","type":"error"},{"inputs":[],"name":"WrongOraclePriceFeedError","type":"error"},{"inputs":[],"name":"WrongPoolConfigError","type":"error"},{"inputs":[],"name":"WrongTokenError","type":"error"},{"inputs":[],"name":"ZeroAmountError","type":"error"},{"inputs":[],"name":"ZeroBalanceError","type":"error"},{"anonymous":false,"inputs":[{"indexed":true,"internalType":"address","name":"account","type":"address"},{"indexed":true,"internalType":"address","name":"token","type":"address"},{"indexed":false,"internalType":"uint256","name":"amount","type":"uint256"}],"name":"Borrow","type":"event"},{"anonymous":false,"inputs":[{"indexed":true,"internalType":"address","name":"account","type":"address"},{"indexed":true,"internalType":"address","name":"token","type":"address"},{"indexed":false,"internalType":"uint256","name":"amount","type":"uint256"}],"name":"Deposit","type":"event"},{"anonymous":false,"inputs":[{"indexed":true,"internalType":"address","name":"token","type":"address"},{"indexed":true,"internalType":"address","name":"poolConfig","type":"address"}],"name":"InitPool","type":"event"},{"anonymous":false,"inputs":[{"indexed":false,"internalType":"uint8","name":"version","type":"uint8"}],"name":"Initialized","type":"event"},{"anonymous":false,"inputs":[{"indexed":true,"internalType":"address","name":"user","type":"address"},{"indexed":true,"internalType":"address","name":"liquidator","type":"address"},{"indexed":false,"internalType":"address","name":"liquidatedToken","type":"address"},{"indexed":false,"internalType":"address","name":"collateralToken","type":"address"},{"indexed":false,"internalType":"uint256","name":"purchaseAmount","type":"uint256"}],"name":"Liquidation","type":"event"},{"anonymous":false,"inputs":[{"indexed":true,"internalType":"address","name":"previousOwner","type":"address"},{"indexed":true,"internalType":"address","name":"newOwner","type":"address"}],"name":"OwnershipTransferred","type":"event"},{"anonymous":false,"inputs":[{"indexed":true,"internalType":"address","name":"account","type":"address"},{"indexed":true,"internalType":"address","name":"token","type":"address"},{"indexed":false,"internalType":"uint256","name":"amount","type":"uint256"}],"name":"Repay","type":"event"},{"anonymous":false,"inputs":[{"indexed":true,"internalType":"address","name":"token","type":"address"},{"indexed":false,"internalType":"uint256","name":"status","type":"uint256"},{"indexed":false,"internalType":"uint256","name":"timestamp","type":"uint256"}],"name":"Status","type":"event"},{"anonymous":false,"inputs":[{"indexed":true,"internalType":"address","name":"account","type":"address"},{"indexed":true,"internalType":"address","name":"token","type":"address"},{"indexed":false,"internalType":"uint256","name":"amount","type":"uint256"}],"name":"Withdraw","type":"event"},{"inputs":[{"internalType":"address","name":"token_","type":"address"},{"internalType":"uint256","name":"amount_","type":"uint256"}],"name":"borrow","outputs":[],"stateMutability":"nonpayable","type":"function"},{"inputs":[{"internalType":"address","name":"account_","type":"address"},{"internalType":"address","name":"token_","type":"address"}],"name":"compoundedBorrowOfUser","outputs":[{"internalType":"uint256","name":"","type":"uint256"}],"stateMutability":"view","type":"function"},{"inputs":[{"internalType":"address","name":"account_","type":"address"},{"internalType":"address","name":"token_","type":"address"}],"name":"compoundedLiquidityOfUser","outputs":[{"internalType":"uint256","name":"","type":"uint256"}],"stateMutability":"view","type":"function"},{"inputs":[{"internalType":"address","name":"account_","type":"address"}],"name":"getAccountInfo","outputs":[{"internalType":"uint256","name":"collateral","type":"uint256"},{"internalType":"uint256","name":"totalBorrow","type":"uint256"}],"stateMutability":"view","type":"function"},{"inputs":[{"internalType":"address","name":"token_","type":"address"}],"name":"getPool","outputs":[{"internalType":"enum Storage.Stat","name":"","type":"uint8"},{"internalType":"address","name":"","type":"address"},{"internalType":"address","name":"","type":"address"},{"internalType":"address","name":"","type":"address"}],"stateMutability":"view","type":"function"},{"inputs":[{"internalType":"address","name":"user_","type":"address"},{"internalType":"address","name":"token_","type":"address"}],"name":"getPurchaseAmount","outputs":[{"internalType":"uint256","name":"","type":"uint256"}],"stateMutability":"view","type":"function"},{"inputs":[{"internalType":"address","name":"priceFeedAddress_","type":"address"},{"internalType":"uint256","name":"amount_","type":"uint256"}],"name":"getUsdValue","outputs":[{"internalType":"uint256","name":"","type":"uint256"}],"stateMutability":"view","type":"function"},{"inputs":[{"internalType":"address","name":"account_","type":"address"}],"name":"healthFactor","outputs":[{"internalType":"uint256","name":"","type":"uint256"}],"stateMutability":"view","type":"function"},{"inputs":[{"internalType":"address","name":"token_","type":"address"},{"internalType":"address","name":"poolConfig_","type":"address"},{"internalType":"address","name":"priceFeedAddress_","type":"address"},{"internalType":"address","name":"priceInUSDFeedAddress_","type":"address"}],"name":"initPool","outputs":[],"stateMutability":"nonpayable","type":"function"},{"inputs":[{"internalType":"address","name":"sTokenFacoryAddress_","type":"address"}],"name":"initialize","outputs":[],"stateMutability":"nonpayable","type":"function"},{"inputs":[{"internalType":"address","name":"token_","type":"address"}],"name":"isCollateralEnabled","outputs":[{"internalType":"bool","name":"","type":"bool"}],"stateMutability":"view","type":"function"},{"inputs":[{"internalType":"address","name":"user_","type":"address"},{"internalType":"address","name":"liquidatedToken_","type":"address"},{"internalType":"address","name":"collateralToken_","type":"address"},{"internalType":"uint256","name":"purchaseAmount_","type":"uint256"}],"name":"liquidation","outputs":[],"stateMutability":"nonpayable","type":"function"},{"inputs":[],"name":"owner","outputs":[{"internalType":"address","name":"","type":"address"}],"stateMutability":"view","type":"function"},{"inputs":[],"name":"renounceOwnership","outputs":[],"stateMutability":"nonpayable","type":"function"},{"inputs":[{"internalType":"address","name":"token_","type":"address"},{"internalType":"uint256","name":"amount_","type":"uint256"}],"name":"repay","outputs":[],"stateMutability":"nonpayable","type":"function"},{"inputs":[{"internalType":"address","name":"token_","type":"address"}],"name":"setCollateral","outputs":[],"stateMutability":"nonpayable","type":"function"},{"inputs":[{"internalType":"address","name":"token_","type":"address"},{"internalType":"uint256","name":"status_","type":"uint256"}],"name":"setPoolStatus","outputs":[],"stateMutability":"nonpayable","type":"function"},{"inputs":[{"internalType":"address","name":"token_","type":"address"},{"internalType":"uint256","name":"amount_","type":"uint256"}],"name":"supply","outputs":[],"stateMutability":"nonpayable","type":"function"},{"inputs":[{"internalType":"address","name":"newOwner","type":"address"}],"name":"transferOwnership","outputs":[],"stateMutability":"nonpayable","type":"function"},{"inputs":[{"internalType":"address","name":"token_","type":"address"},{"internalType":"uint256","name":"amount_","type":"uint256"}],"name":"withdraw","outputs":[],"stateMutability":"nonpayable","type":"function"},{"inputs":[{"internalType":"address","name":"token_","type":"address"}],"name":"withdrawReserve","outputs":[],"stateMutability":"nonpayable","type":"function"}],"bytecode":"0x608060405234801561001057600080fd5b50615fa280620000216000396000f3fe608060405234801561001057600080fd5b50600436106101375760003560e01c80637b510fe8116100b8578063c660d1121161007c578063c660d1121461034c578063cc773ef81461037c578063eba6e165146103ac578063f2b9fdb8146103c8578063f2fde38b146103e4578063f3fef3a31461040057610137565b80637b510fe814610292578063886abef5146102c35780638da5cb5b146102df578063bbe4f6db146102fd578063c4d66de81461033057610137565b80634b8a3529116100ff5780634b8a3529146101f0578063528377b51461020c57806352a387ab1461023c5780636ad9f9df14610258578063715018a61461028857610137565b80630dfdbb211461013c578063117203b71461015857806312e20d031461018857806322867d78146101a4578063289379e2146101c0575b600080fd5b61015660048036038101906101519190614cbe565b61041c565b005b610172600480360381019061016d9190614cfe565b610646565b60405161017f9190614d4d565b60405180910390f35b6101a2600480360381019061019d9190614d68565b61080e565b005b6101be60048036038101906101b99190614cbe565b610de6565b005b6101da60048036038101906101d59190614cfe565b611554565b6040516101e79190614d4d565b60405180910390f35b61020a60048036038101906102059190614cbe565b611661565b005b61022660048036038101906102219190614dcf565b611c70565b6040516102339190614e17565b60405180910390f35b61025660048036038101906102519190614dcf565b611d06565b005b610272600480360381019061026d9190614dcf565b611e90565b60405161027f9190614d4d565b60405180910390f35b610290611f43565b005b6102ac60048036038101906102a79190614dcf565b611f57565b6040516102ba929190614e32565b60405180910390f35b6102dd60048036038101906102d89190614dcf565b611f75565b005b6102e761209c565b6040516102f49190614e6a565b60405180910390f35b61031760048036038101906103129190614dcf565b6120c6565b6040516103279493929190614efc565b60405180910390f35b61034a60048036038101906103459190614dcf565b612191565b005b61036660048036038101906103619190614cbe565b612319565b6040516103739190614d4d565b60405180910390f35b61039660048036038101906103919190614cfe565b61239d565b6040516103a39190614d4d565b60405180910390f35b6103c660048036038101906103c19190614f41565b6124e8565b005b6103e260048036038101906103dd9190614cbe565b612c61565b005b6103fe60048036038101906103f99190614dcf565b6131b1565b005b61041a60048036038101906104159190614cbe565b613234565b005b6104246139ea565b81600073ffffffffffffffffffffffffffffffffffffffff168173ffffffffffffffffffffffffffffffffffffffff160361048b576040517f803faa7200000000000000000000000000000000000000000000000000000000815260040160405180910390fd5b6000609760008573ffffffffffffffffffffffffffffffffffffffff1673ffffffffffffffffffffffffffffffffffffffff1681526020019081526020016000209050600060028111156104e2576104e1614e85565b5b830361051a5760008160000160006101000a81548160ff021916908360028111156105105761050f614e85565b5b02179055506105f0565b6001600281111561052e5761052d614e85565b5b83036105665760018160000160006101000a81548160ff0219169083600281111561055c5761055b614e85565b5b02179055506105ef565b60028081111561057957610578614e85565b5b83036105b15760028160000160006101000a81548160ff021916908360028111156105a7576105a6614e85565b5b02179055506105ee565b826040517f6c29d38b0000000000000000000000000000000000000000000000000000000081526004016105e59190614d4d565b60405180910390fd5b5b5b8373ffffffffffffffffffffffffffffffffffffffff167f0972b110d01da9db2cc90072237d49d0a30100e446a4afdede4cbe605a09b3548442604051610638929190614e32565b60405180910390a250505050565b6000808273ffffffffffffffffffffffffffffffffffffffff166370a08231306040518263ffffffff1660e01b81526004016106829190614e6a565b602060405180830381865afa15801561069f573d6000803e3d6000fd5b505050506040513d601f19601f820116820180604052508101906106c39190614fbd565b9050609760008473ffffffffffffffffffffffffffffffffffffffff1673ffffffffffffffffffffffffffffffffffffffff16815260200190815260200160002060030154811015610741576040517f724413cd00000000000000000000000000000000000000000000000000000000815260040160405180910390fd5b73__$08abf2d50c1b0f62d9c9136b5f3a1f1411$__634baf2d65609760008673ffffffffffffffffffffffffffffffffffffffff1673ffffffffffffffffffffffffffffffffffffffff168152602001908152602001600020866107a487613a68565b856040518563ffffffff1660e01b81526004016107c494939291906152fb565b602060405180830381865af41580156107e1573d6000803e3d6000fd5b505050506040513d601f19601f820116820180604052508101906108059190614fbd565b91505092915050565b826000609760008373ffffffffffffffffffffffffffffffffffffffff1673ffffffffffffffffffffffffffffffffffffffff1681526020019081526020016000209050600061085d83613a68565b90506000826001015490508173__$b4cafc809c0c4516e81e1b7a7f4901dbfc$__63761fdad69091836040518363ffffffff1660e01b81526004016108a3929190615344565b602060405180830381865af41580156108c0573d6000803e3d6000fd5b505050506040513d601f19601f820116820180604052508101906108e49190614fbd565b8360010181905550610903818460010154613cdc90919063ffffffff16565b73__$b4cafc809c0c4516e81e1b7a7f4901dbfc$__63761fdad6909166b1a2bc2ec500006040518363ffffffff1660e01b8152600401610944929190615344565b602060405180830381865af4158015610961573d6000803e3d6000fd5b505050506040513d601f19601f820116820180604052508101906109859190614fbd565b836003016000828254610998919061539c565b92505081905550428360040181905550856000609760008373ffffffffffffffffffffffffffffffffffffffff1673ffffffffffffffffffffffffffffffffffffffff168152602001908152602001600020905060006109f783613a68565b90506000826001015490508173__$b4cafc809c0c4516e81e1b7a7f4901dbfc$__63761fdad69091836040518363ffffffff1660e01b8152600401610a3d929190615344565b602060405180830381865af4158015610a5a573d6000803e3d6000fd5b505050506040513d601f19601f82011682018060405250810190610a7e9190614fbd565b8360010181905550610a9d818460010154613cdc90919063ffffffff16565b73__$b4cafc809c0c4516e81e1b7a7f4901dbfc$__63761fdad6909166b1a2bc2ec500006040518363ffffffff1660e01b8152600401610ade929190615344565b602060405180830381865af4158015610afb573d6000803e3d6000fd5b505050506040513d601f19601f82011682018060405250810190610b1f9190614fbd565b836003016000828254610b32919061539c565b92505081905550428360040181905550610b4a613cf2565b670de0b6b3a7640000610b5c8d611e90565b10610b6657600080fd5b60008c905060008b905060008d905060008c90506000609860008673ffffffffffffffffffffffffffffffffffffffff1673ffffffffffffffffffffffffffffffffffffffff16815260200190815260200160002060008473ffffffffffffffffffffffffffffffffffffffff1673ffffffffffffffffffffffffffffffffffffffff1681526020019081526020016000206001015490506000610c0984613d41565b90506000609860008873ffffffffffffffffffffffffffffffffffffffff1673ffffffffffffffffffffffffffffffffffffffff16815260200190815260200160002060008773ffffffffffffffffffffffffffffffffffffffff1673ffffffffffffffffffffffffffffffffffffffff16815260200190815260200160002060000160009054906101000a900460ff169050600080600073__$0137c94914bec00b16d1bfe5133529ae95$__63acf801c5609760008b73ffffffffffffffffffffffffffffffffffffffff1673ffffffffffffffffffffffffffffffffffffffff168152602001908152602001600020609760008d73ffffffffffffffffffffffffffffffffffffffff1673ffffffffffffffffffffffffffffffffffffffff168152602001908152602001600020898b6706f05b59d3b200008b8b6040518863ffffffff1660e01b8152600401610d6897969594939291906153df565b606060405180830381865af4158015610d85573d6000803e3d6000fd5b505050506040513d601f19601f82011682018060405250810190610da99190615455565b925092509250610dbd8a898b868686613eed565b610dc657600080fd5b50505050505050505050610dd861433b565b505050505050505050505050565b816000609760008373ffffffffffffffffffffffffffffffffffffffff1673ffffffffffffffffffffffffffffffffffffffff16815260200190815260200160002090506000610e3583613a68565b90506000826001015490508173__$b4cafc809c0c4516e81e1b7a7f4901dbfc$__63761fdad69091836040518363ffffffff1660e01b8152600401610e7b929190615344565b602060405180830381865af4158015610e98573d6000803e3d6000fd5b505050506040513d601f19601f82011682018060405250810190610ebc9190614fbd565b8360010181905550610edb818460010154613cdc90919063ffffffff16565b73__$b4cafc809c0c4516e81e1b7a7f4901dbfc$__63761fdad6909166b1a2bc2ec500006040518363ffffffff1660e01b8152600401610f1c929190615344565b602060405180830381865af4158015610f39573d6000803e3d6000fd5b505050506040513d601f19601f82011682018060405250810190610f5d9190614fbd565b836003016000828254610f70919061539c565b92505081905550428360040181905550610f88613cf2565b8560016002811115610f9d57610f9c614e85565b5b609760008373ffffffffffffffffffffffffffffffffffffffff1673ffffffffffffffffffffffffffffffffffffffff16815260200190815260200160002060000160009054906101000a900460ff166002811115610fff57610ffe614e85565b5b14158015611080575060028081111561101b5761101a614e85565b5b609760008373ffffffffffffffffffffffffffffffffffffffff1673ffffffffffffffffffffffffffffffffffffffff16815260200190815260200160002060000160009054906101000a900460ff16600281111561107d5761107c614e85565b5b14155b156110b7576040517f7d1ff86200000000000000000000000000000000000000000000000000000000815260040160405180910390fd5b6000609760008973ffffffffffffffffffffffffffffffffffffffff1673ffffffffffffffffffffffffffffffffffffffff168152602001908152602001600020905060008711611134576040517f6e0ccc0700000000000000000000000000000000000000000000000000000000815260040160405180910390fd5b6000609860003373ffffffffffffffffffffffffffffffffffffffff1673ffffffffffffffffffffffffffffffffffffffff16815260200190815260200160002060008a73ffffffffffffffffffffffffffffffffffffffff1673ffffffffffffffffffffffffffffffffffffffff168152602001908152602001600020600101549050600081116111f2576040517f9b4bb81b00000000000000000000000000000000000000000000000000000000815260040160405180910390fd5b60007fffffffffffffffffffffffffffffffffffffffffffffffffffffffffffffffff8903611243577fffffffffffffffffffffffffffffffffffffffffffffffffffffffffffffffff90506112c0565b73__$96f0c80dbc99cb8fdd941a8a8ae489d976$__63a3ee8d7d848b6040518363ffffffff1660e01b815260040161127c9291906155db565b602060405180830381865af4158015611299573d6000803e3d6000fd5b505050506040513d601f19601f820116820180604052508101906112bd9190614fbd565b90505b60008282116112cf57816112d1565b825b9050600073__$96f0c80dbc99cb8fdd941a8a8ae489d976$__63c4ffd57b86846040518363ffffffff1660e01b815260040161130e9291906155db565b602060405180830381865af415801561132b573d6000803e3d6000fd5b505050506040513d601f19601f8201168201806040525081019061134f9190614fbd565b9050808560010160008282546113659190615606565b92505081905550818560020160008282546113809190615606565b9250508190555081609860003373ffffffffffffffffffffffffffffffffffffffff1673ffffffffffffffffffffffffffffffffffffffff16815260200190815260200160002060008e73ffffffffffffffffffffffffffffffffffffffff1673ffffffffffffffffffffffffffffffffffffffff16815260200190815260200160002060010160008282546114169190615606565b9250508190555060008c73ffffffffffffffffffffffffffffffffffffffff166323b872dd3330856040518463ffffffff1660e01b815260040161145c9392919061563a565b6020604051808303816000875af115801561147b573d6000803e3d6000fd5b505050506040513d601f19601f8201168201806040525081019061149f919061569d565b9050806114d8576040517f6ef5c0af00000000000000000000000000000000000000000000000000000000815260040160405180910390fd5b8c73ffffffffffffffffffffffffffffffffffffffff163373ffffffffffffffffffffffffffffffffffffffff167f05f2eeda0e08e4b437f487c8d7d29b14537d15e3488170dc3de5dbdf8dac46848e6040516115359190614d4d565b60405180910390a35050505050505061154c61433b565b505050505050565b6000609860008473ffffffffffffffffffffffffffffffffffffffff1673ffffffffffffffffffffffffffffffffffffffff16815260200190815260200160002060008373ffffffffffffffffffffffffffffffffffffffff1673ffffffffffffffffffffffffffffffffffffffff1681526020019081526020016000206001015473__$b4cafc809c0c4516e81e1b7a7f4901dbfc$__63761fdad690916706f05b59d3b200006040518363ffffffff1660e01b8152600401611618929190615344565b602060405180830381865af4158015611635573d6000803e3d6000fd5b505050506040513d601f19601f820116820180604052508101906116599190614fbd565b905092915050565b816000609760008373ffffffffffffffffffffffffffffffffffffffff1673ffffffffffffffffffffffffffffffffffffffff168152602001908152602001600020905060006116b083613a68565b90506000826001015490508173__$b4cafc809c0c4516e81e1b7a7f4901dbfc$__63761fdad69091836040518363ffffffff1660e01b81526004016116f6929190615344565b602060405180830381865af4158015611713573d6000803e3d6000fd5b505050506040513d601f19601f820116820180604052508101906117379190614fbd565b8360010181905550611756818460010154613cdc90919063ffffffff16565b73__$b4cafc809c0c4516e81e1b7a7f4901dbfc$__63761fdad6909166b1a2bc2ec500006040518363ffffffff1660e01b8152600401611797929190615344565b602060405180830381865af41580156117b4573d6000803e3d6000fd5b505050506040513d601f19601f820116820180604052508101906117d89190614fbd565b8360030160008282546117eb919061539c565b92505081905550428360040181905550611803613cf2565b6000609760008873ffffffffffffffffffffffffffffffffffffffff1673ffffffffffffffffffffffffffffffffffffffff16815260200190815260200160002090506001600281111561185a57611859614e85565b5b8160000160009054906101000a900460ff16600281111561187e5761187d614e85565b5b146118b5576040517f7d1ff86200000000000000000000000000000000000000000000000000000000815260040160405180910390fd5b600086116118ef576040517f6e0ccc0700000000000000000000000000000000000000000000000000000000815260040160405180910390fd5b8673ffffffffffffffffffffffffffffffffffffffff166370a08231306040518263ffffffff1660e01b81526004016119289190614e6a565b602060405180830381865afa158015611945573d6000803e3d6000fd5b505050506040513d601f19601f820116820180604052508101906119699190614fbd565b8611156119a2576040517f70f1df7600000000000000000000000000000000000000000000000000000000815260040160405180910390fd5b600073__$96f0c80dbc99cb8fdd941a8a8ae489d976$__63ce5254a183896040518363ffffffff1660e01b81526004016119dd9291906155db565b602060405180830381865af41580156119fa573d6000803e3d6000fd5b505050506040513d601f19601f82011682018060405250810190611a1e9190614fbd565b905080826002016000828254611a34919061539c565b9250508190555086826001016000828254611a4f919061539c565b9250508190555080609860003373ffffffffffffffffffffffffffffffffffffffff1673ffffffffffffffffffffffffffffffffffffffff16815260200190815260200160002060008a73ffffffffffffffffffffffffffffffffffffffff1673ffffffffffffffffffffffffffffffffffffffff1681526020019081526020016000206001016000828254611ae5919061539c565b9250508190555060008873ffffffffffffffffffffffffffffffffffffffff1663a9059cbb338a6040518363ffffffff1660e01b8152600401611b299291906156ca565b6020604051808303816000875af1158015611b48573d6000803e3d6000fd5b505050506040513d601f19601f82011682018060405250810190611b6c919061569d565b905080611ba5576040517f6ef5c0af00000000000000000000000000000000000000000000000000000000815260040160405180910390fd5b670de0b6b3a7640000611bb733611e90565b1015611bf8576040517f08c379a0000000000000000000000000000000000000000000000000000000008152600401611bef90615750565b60405180910390fd5b8873ffffffffffffffffffffffffffffffffffffffff163373ffffffffffffffffffffffffffffffffffffffff167f312a5e5e1079f5dda4e95dbbd0b908b291fd5b992ef22073643ab691572c5b528a604051611c559190614d4d565b60405180910390a3505050611c6861433b565b505050505050565b6000609860003373ffffffffffffffffffffffffffffffffffffffff1673ffffffffffffffffffffffffffffffffffffffff16815260200190815260200160002060008373ffffffffffffffffffffffffffffffffffffffff1673ffffffffffffffffffffffffffffffffffffffff16815260200190815260200160002060000160009054906101000a900460ff169050919050565b611d0e6139ea565b80600073ffffffffffffffffffffffffffffffffffffffff168173ffffffffffffffffffffffffffffffffffffffff1603611d75576040517f803faa7200000000000000000000000000000000000000000000000000000000815260040160405180910390fd5b6000609760008473ffffffffffffffffffffffffffffffffffffffff1673ffffffffffffffffffffffffffffffffffffffff1681526020019081526020016000206003015490506000609760008573ffffffffffffffffffffffffffffffffffffffff1673ffffffffffffffffffffffffffffffffffffffff168152602001908152602001600020600301819055508273ffffffffffffffffffffffffffffffffffffffff1663a9059cbb33836040518363ffffffff1660e01b8152600401611e3f9291906156ca565b6020604051808303816000875af1158015611e5e573d6000803e3d6000fd5b505050506040513d601f19601f82011682018060405250810190611e82919061569d565b611e8b57600080fd5b505050565b6000806000611e9e84611f57565b9150915060008103611ebd5768056bc75e2d6310000092505050611f3e565b8173__$b4cafc809c0c4516e81e1b7a7f4901dbfc$__63e57b6d3b9091836040518363ffffffff1660e01b8152600401611ef8929190615344565b602060405180830381865af4158015611f15573d6000803e3d6000fd5b505050506040513d601f19601f82011682018060405250810190611f399190614fbd565b925050505b919050565b611f4b6139ea565b611f556000614345565b565b600080611f638361440b565b611f6c84614761565b91509150915091565b609860003373ffffffffffffffffffffffffffffffffffffffff1673ffffffffffffffffffffffffffffffffffffffff16815260200190815260200160002060008273ffffffffffffffffffffffffffffffffffffffff1673ffffffffffffffffffffffffffffffffffffffff16815260200190815260200160002060000160009054906101000a900460ff1615609860003373ffffffffffffffffffffffffffffffffffffffff1673ffffffffffffffffffffffffffffffffffffffff16815260200190815260200160002060008373ffffffffffffffffffffffffffffffffffffffff1673ffffffffffffffffffffffffffffffffffffffff16815260200190815260200160002060000160006101000a81548160ff02191690831515021790555050565b6000603360009054906101000a900473ffffffffffffffffffffffffffffffffffffffff16905090565b60008060008073__$0137c94914bec00b16d1bfe5133529ae95$__636c349758609760008873ffffffffffffffffffffffffffffffffffffffff1673ffffffffffffffffffffffffffffffffffffffff1681526020019081526020016000206040518263ffffffff1660e01b81526004016121419190615770565b608060405180830381865af415801561215e573d6000803e3d6000fd5b505050506040513d601f19601f8201168201806040525081019061218291906157c6565b93509350935093509193509193565b60008060019054906101000a900460ff161590508080156121c25750600160008054906101000a900460ff1660ff16105b806121ef57506121d1306148d3565b1580156121ee5750600160008054906101000a900460ff1660ff16145b5b61222e576040517f08c379a00000000000000000000000000000000000000000000000000000000081526004016122259061589f565b60405180910390fd5b60016000806101000a81548160ff021916908360ff160217905550801561226b576001600060016101000a81548160ff0219169083151502179055505b6122736148f6565b61227b61494f565b81609b60006101000a81548173ffffffffffffffffffffffffffffffffffffffff021916908373ffffffffffffffffffffffffffffffffffffffff16021790555080156123155760008060016101000a81548160ff0219169083151502179055507f7f26b83ff96e1f2b6a682f133852f6798a09c465da95921460cefb3847402498600160405161230c9190615907565b60405180910390a15b5050565b600073__$a07b62fc6554bedc1c2bb30ca3e36905b5$__63c660d11284846040518363ffffffff1660e01b8152600401612354929190615922565b602060405180830381865af4158015612371573d6000803e3d6000fd5b505050506040513d601f19601f820116820180604052508101906123959190614fbd565b905092915050565b600073__$08abf2d50c1b0f62d9c9136b5f3a1f1411$__63d4f23322609760008573ffffffffffffffffffffffffffffffffffffffff1673ffffffffffffffffffffffffffffffffffffffff168152602001908152602001600020609860008773ffffffffffffffffffffffffffffffffffffffff1673ffffffffffffffffffffffffffffffffffffffff16815260200190815260200160002060008673ffffffffffffffffffffffffffffffffffffffff1673ffffffffffffffffffffffffffffffffffffffff1681526020019081526020016000206001015461248186613a68565b6040518463ffffffff1660e01b815260040161249f9392919061594b565b602060405180830381865af41580156124bc573d6000803e3d6000fd5b505050506040513d601f19601f820116820180604052508101906124e09190614fbd565b905092915050565b6124f06139ea565b83600073ffffffffffffffffffffffffffffffffffffffff168173ffffffffffffffffffffffffffffffffffffffff1603612557576040517f803faa7200000000000000000000000000000000000000000000000000000000815260040160405180910390fd5b600073ffffffffffffffffffffffffffffffffffffffff168473ffffffffffffffffffffffffffffffffffffffff16036125bd576040517f444c3a1c00000000000000000000000000000000000000000000000000000000815260040160405180910390fd5b600073ffffffffffffffffffffffffffffffffffffffff168373ffffffffffffffffffffffffffffffffffffffff1614806126245750600073ffffffffffffffffffffffffffffffffffffffff168273ffffffffffffffffffffffffffffffffffffffff16145b1561265b576040517ff64f479000000000000000000000000000000000000000000000000000000000815260040160405180910390fd5b600080600090505b609a805490508110156126fd578673ffffffffffffffffffffffffffffffffffffffff16609a828154811061269b5761269a615985565b5b9060005260206000200160009054906101000a900473ffffffffffffffffffffffffffffffffffffffff1673ffffffffffffffffffffffffffffffffffffffff16036126ea57600191506126fd565b80806126f5906159b4565b915050612663565b5080612c59576000609b60009054906101000a900473ffffffffffffffffffffffffffffffffffffffff1673ffffffffffffffffffffffffffffffffffffffff1663bf79723f8873ffffffffffffffffffffffffffffffffffffffff166306fdde036040518163ffffffff1660e01b8152600401600060405180830381865afa15801561278e573d6000803e3d6000fd5b505050506040513d6000823e3d601f19601f820116820180604052508101906127b79190615b5d565b6040516020016127c79190615c39565b6040516020818303038152906040528973ffffffffffffffffffffffffffffffffffffffff166395d89b416040518163ffffffff1660e01b8152600401600060405180830381865afa158015612821573d6000803e3d6000fd5b505050506040513d6000823e3d601f19601f8201168201806040525081019061284a9190615b5d565b60405160200161285a9190615c39565b6040516020818303038152906040526040518363ffffffff1660e01b8152600401612886929190615c94565b6020604051808303816000875af11580156128a5573d6000803e3d6000fd5b505050506040513d601f19601f820116820180604052508101906128c99190615d09565b9050604051806101400160405280600060028111156128eb576128ea614e85565b5b81526020018773ffffffffffffffffffffffffffffffffffffffff1681526020016000815260200160008152602001600081526020014281526020018273ffffffffffffffffffffffffffffffffffffffff168152602001600081526020018673ffffffffffffffffffffffffffffffffffffffff1681526020018573ffffffffffffffffffffffffffffffffffffffff16815250609760008973ffffffffffffffffffffffffffffffffffffffff1673ffffffffffffffffffffffffffffffffffffffff16815260200190815260200160002060008201518160000160006101000a81548160ff021916908360028111156129ea576129e9614e85565b5b021790555060208201518160000160016101000a81548173ffffffffffffffffffffffffffffffffffffffff021916908373ffffffffffffffffffffffffffffffffffffffff16021790555060408201518160010155606082015181600201556080820151816003015560a0820151816004015560c08201518160050160006101000a81548173ffffffffffffffffffffffffffffffffffffffff021916908373ffffffffffffffffffffffffffffffffffffffff16021790555060e082015181600601556101008201518160070160006101000a81548173ffffffffffffffffffffffffffffffffffffffff021916908373ffffffffffffffffffffffffffffffffffffffff1602179055506101208201518160080160006101000a81548173ffffffffffffffffffffffffffffffffffffffff021916908373ffffffffffffffffffffffffffffffffffffffff160217905550905050609a879080600181540180825580915050600190039060005260206000200160009091909190916101000a81548173ffffffffffffffffffffffffffffffffffffffff021916908373ffffffffffffffffffffffffffffffffffffffff1602179055506001609960008973ffffffffffffffffffffffffffffffffffffffff1673ffffffffffffffffffffffffffffffffffffffff16815260200190815260200160002060006101000a81548160ff0219169083151502179055508573ffffffffffffffffffffffffffffffffffffffff168773ffffffffffffffffffffffffffffffffffffffff167f70114b43b09bb480eacf7eeb7555d38ec184bb87fb002a8d652b00017e8a57b960405160405180910390a3505b505050505050565b816000609760008373ffffffffffffffffffffffffffffffffffffffff1673ffffffffffffffffffffffffffffffffffffffff16815260200190815260200160002090506000612cb083613a68565b90506000826001015490508173__$b4cafc809c0c4516e81e1b7a7f4901dbfc$__63761fdad69091836040518363ffffffff1660e01b8152600401612cf6929190615344565b602060405180830381865af4158015612d13573d6000803e3d6000fd5b505050506040513d601f19601f82011682018060405250810190612d379190614fbd565b8360010181905550612d56818460010154613cdc90919063ffffffff16565b73__$b4cafc809c0c4516e81e1b7a7f4901dbfc$__63761fdad6909166b1a2bc2ec500006040518363ffffffff1660e01b8152600401612d97929190615344565b602060405180830381865af4158015612db4573d6000803e3d6000fd5b505050506040513d601f19601f82011682018060405250810190612dd89190614fbd565b836003016000828254612deb919061539c565b92505081905550428360040181905550612e03613cf2565b60016002811115612e1757612e16614e85565b5b609760008873ffffffffffffffffffffffffffffffffffffffff1673ffffffffffffffffffffffffffffffffffffffff16815260200190815260200160002060000160009054906101000a900460ff166002811115612e7957612e78614e85565b5b14612eb0576040517f7d1ff86200000000000000000000000000000000000000000000000000000000815260040160405180910390fd5b60008511612eea576040517f6e0ccc0700000000000000000000000000000000000000000000000000000000815260040160405180910390fd5b600073__$96f0c80dbc99cb8fdd941a8a8ae489d976$__63e3818967609760008a73ffffffffffffffffffffffffffffffffffffffff1673ffffffffffffffffffffffffffffffffffffffff168152602001908152602001600020612f4e8a613d41565b896040518463ffffffff1660e01b8152600401612f6d9392919061594b565b602060405180830381865af4158015612f8a573d6000803e3d6000fd5b505050506040513d601f19601f82011682018060405250810190612fae9190614fbd565b9050609760008873ffffffffffffffffffffffffffffffffffffffff1673ffffffffffffffffffffffffffffffffffffffff16815260200190815260200160002060050160009054906101000a900473ffffffffffffffffffffffffffffffffffffffff1673ffffffffffffffffffffffffffffffffffffffff166340c10f1933836040518363ffffffff1660e01b815260040161304d9291906156ca565b600060405180830381600087803b15801561306757600080fd5b505af115801561307b573d6000803e3d6000fd5b5050505060008773ffffffffffffffffffffffffffffffffffffffff166323b872dd33308a6040518463ffffffff1660e01b81526004016130be9392919061563a565b6020604051808303816000875af11580156130dd573d6000803e3d6000fd5b505050506040513d601f19601f82011682018060405250810190613101919061569d565b90508061313a576040517f6ef5c0af00000000000000000000000000000000000000000000000000000000815260040160405180910390fd5b8773ffffffffffffffffffffffffffffffffffffffff163373ffffffffffffffffffffffffffffffffffffffff167f5548c837ab068cf56a2c2479df0882a4922fd203edb7517321831d95078c5f62896040516131979190614d4d565b60405180910390a350506131a961433b565b505050505050565b6131b96139ea565b600073ffffffffffffffffffffffffffffffffffffffff168173ffffffffffffffffffffffffffffffffffffffff1603613228576040517f08c379a000000000000000000000000000000000000000000000000000000000815260040161321f90615da8565b60405180910390fd5b61323181614345565b50565b816000609760008373ffffffffffffffffffffffffffffffffffffffff1673ffffffffffffffffffffffffffffffffffffffff1681526020019081526020016000209050600061328383613a68565b90506000826001015490508173__$b4cafc809c0c4516e81e1b7a7f4901dbfc$__63761fdad69091836040518363ffffffff1660e01b81526004016132c9929190615344565b602060405180830381865af41580156132e6573d6000803e3d6000fd5b505050506040513d601f19601f8201168201806040525081019061330a9190614fbd565b8360010181905550613329818460010154613cdc90919063ffffffff16565b73__$b4cafc809c0c4516e81e1b7a7f4901dbfc$__63761fdad6909166b1a2bc2ec500006040518363ffffffff1660e01b815260040161336a929190615344565b602060405180830381865af4158015613387573d6000803e3d6000fd5b505050506040513d601f19601f820116820180604052508101906133ab9190614fbd565b8360030160008282546133be919061539c565b925050819055504283600401819055506133d6613cf2565b85600160028111156133eb576133ea614e85565b5b609760008373ffffffffffffffffffffffffffffffffffffffff1673ffffffffffffffffffffffffffffffffffffffff16815260200190815260200160002060000160009054906101000a900460ff16600281111561344d5761344c614e85565b5b141580156134ce575060028081111561346957613468614e85565b5b609760008373ffffffffffffffffffffffffffffffffffffffff1673ffffffffffffffffffffffffffffffffffffffff16815260200190815260200160002060000160009054906101000a900460ff1660028111156134cb576134ca614e85565b5b14155b15613505576040517f7d1ff86200000000000000000000000000000000000000000000000000000000815260040160405180910390fd5b6000609760008973ffffffffffffffffffffffffffffffffffffffff1673ffffffffffffffffffffffffffffffffffffffff168152602001908152602001600020905060008711613582576040517f6e0ccc0700000000000000000000000000000000000000000000000000000000815260040160405180910390fd5b60008160050160009054906101000a900473ffffffffffffffffffffffffffffffffffffffff1673ffffffffffffffffffffffffffffffffffffffff166370a08231336040518263ffffffff1660e01b81526004016135e19190614e6a565b602060405180830381865afa1580156135fe573d6000803e3d6000fd5b505050506040513d601f19601f820116820180604052508101906136229190614fbd565b90506000811161365e576040517f9b4bb81b00000000000000000000000000000000000000000000000000000000815260040160405180910390fd5b60007fffffffffffffffffffffffffffffffffffffffffffffffffffffffffffffffff89036136af577fffffffffffffffffffffffffffffffffffffffffffffffffffffffffffffffff9050613736565b73__$96f0c80dbc99cb8fdd941a8a8ae489d976$__63e3818967846136d38d613d41565b8c6040518463ffffffff1660e01b81526004016136f293929190615dc8565b602060405180830381865af415801561370f573d6000803e3d6000fd5b505050506040513d601f19601f820116820180604052508101906137339190614fbd565b90505b60008282116137455781613747565b825b9050600073__$96f0c80dbc99cb8fdd941a8a8ae489d976$__63ddb5aaff8661376f8f613d41565b856040518463ffffffff1660e01b815260040161378e93929190615dc8565b602060405180830381865af41580156137ab573d6000803e3d6000fd5b505050506040513d601f19601f820116820180604052508101906137cf9190614fbd565b90508460050160009054906101000a900473ffffffffffffffffffffffffffffffffffffffff1673ffffffffffffffffffffffffffffffffffffffff16639dc29fac33846040518363ffffffff1660e01b81526004016138309291906156ca565b600060405180830381600087803b15801561384a57600080fd5b505af115801561385e573d6000803e3d6000fd5b5050505060008c73ffffffffffffffffffffffffffffffffffffffff1663a9059cbb33846040518363ffffffff1660e01b815260040161389f9291906156ca565b6020604051808303816000875af11580156138be573d6000803e3d6000fd5b505050506040513d601f19601f820116820180604052508101906138e2919061569d565b90508061391b576040517f6ef5c0af00000000000000000000000000000000000000000000000000000000815260040160405180910390fd5b670de0b6b3a764000061392d33611e90565b101561396e576040517f08c379a000000000000000000000000000000000000000000000000000000000815260040161396590615750565b60405180910390fd5b8c73ffffffffffffffffffffffffffffffffffffffff163373ffffffffffffffffffffffffffffffffffffffff167f9b1bfa7fa9ee420a16e124f794c35ac9f90472acc99140eb2f6447c714cad8eb846040516139cb9190614d4d565b60405180910390a3505050505050506139e261433b565b505050505050565b6139f26149a8565b73ffffffffffffffffffffffffffffffffffffffff16613a1061209c565b73ffffffffffffffffffffffffffffffffffffffff1614613a66576040517f08c379a0000000000000000000000000000000000000000000000000000000008152600401613a5d90615e4e565b60405180910390fd5b565b600081600073ffffffffffffffffffffffffffffffffffffffff168173ffffffffffffffffffffffffffffffffffffffff1603613ad1576040517f803faa7200000000000000000000000000000000000000000000000000000000815260040160405180910390fd5b609960008473ffffffffffffffffffffffffffffffffffffffff1673ffffffffffffffffffffffffffffffffffffffff16815260200190815260200160002060009054906101000a900460ff16613b54576040517fa96e157b00000000000000000000000000000000000000000000000000000000815260040160405180910390fd5b6000609760008573ffffffffffffffffffffffffffffffffffffffff1673ffffffffffffffffffffffffffffffffffffffff16815260200190815260200160002060000160019054906101000a900473ffffffffffffffffffffffffffffffffffffffff1673ffffffffffffffffffffffffffffffffffffffff16631a792944609760008773ffffffffffffffffffffffffffffffffffffffff1673ffffffffffffffffffffffffffffffffffffffff16815260200190815260200160002060010154613c2087613d41565b6040518363ffffffff1660e01b8152600401613c3d929190614e32565b602060405180830381865afa158015613c5a573d6000803e3d6000fd5b505050506040513d601f19601f82011682018060405250810190613c7e9190614fbd565b90506000613ccf82609760008873ffffffffffffffffffffffffffffffffffffffff1673ffffffffffffffffffffffffffffffffffffffff16815260200190815260200160002060040154426149b0565b9050809350505050919050565b60008183613cea9190615606565b905092915050565b600260655403613d37576040517f08c379a0000000000000000000000000000000000000000000000000000000008152600401613d2e90615eba565b60405180910390fd5b6002606581905550565b6000808273ffffffffffffffffffffffffffffffffffffffff166370a08231306040518263ffffffff1660e01b8152600401613d7d9190614e6a565b602060405180830381865afa158015613d9a573d6000803e3d6000fd5b505050506040513d601f19601f82011682018060405250810190613dbe9190614fbd565b9050609760008473ffffffffffffffffffffffffffffffffffffffff1673ffffffffffffffffffffffffffffffffffffffff16815260200190815260200160002060030154811015613e3c576040517f724413cd00000000000000000000000000000000000000000000000000000000815260040160405180910390fd5b613ee5613e94609760008673ffffffffffffffffffffffffffffffffffffffff1673ffffffffffffffffffffffffffffffffffffffff1681526020019081526020016000206003015483613cdc90919063ffffffff16565b609760008673ffffffffffffffffffffffffffffffffffffffff1673ffffffffffffffffffffffffffffffffffffffff16815260200190815260200160002060010154614b4690919063ffffffff16565b915050919050565b600080609760008873ffffffffffffffffffffffffffffffffffffffff1673ffffffffffffffffffffffffffffffffffffffff16815260200190815260200160002090506000609760008873ffffffffffffffffffffffffffffffffffffffff1673ffffffffffffffffffffffffffffffffffffffff16815260200190815260200160002090508773ffffffffffffffffffffffffffffffffffffffff166323b872dd3330886040518463ffffffff1660e01b8152600401613fb19392919061563a565b6020604051808303816000875af1158015613fd0573d6000803e3d6000fd5b505050506040513d601f19601f82011682018060405250810190613ff4919061569d565b613ffd57600080fd5b858160050160009054906101000a900473ffffffffffffffffffffffffffffffffffffffff1673ffffffffffffffffffffffffffffffffffffffff166370a082318b6040518263ffffffff1660e01b815260040161405b9190614e6a565b602060405180830381865afa158015614078573d6000803e3d6000fd5b505050506040513d601f19601f8201168201806040525081019061409c9190614fbd565b10156140d4576040517f9b4bb81b00000000000000000000000000000000000000000000000000000000815260040160405180910390fd5b8060050160009054906101000a900473ffffffffffffffffffffffffffffffffffffffff1673ffffffffffffffffffffffffffffffffffffffff16639dc29fac8a886040518363ffffffff1660e01b81526004016141339291906156ca565b600060405180830381600087803b15801561414d57600080fd5b505af1158015614161573d6000803e3d6000fd5b505050508060050160009054906101000a900473ffffffffffffffffffffffffffffffffffffffff1673ffffffffffffffffffffffffffffffffffffffff166340c10f1933886040518363ffffffff1660e01b81526004016141c49291906156ca565b600060405180830381600087803b1580156141de57600080fd5b505af11580156141f2573d6000803e3d6000fd5b505050508482600101600082825461420a9190615606565b92505081905550838260020160008282546142259190615606565b9250508190555083609860008b73ffffffffffffffffffffffffffffffffffffffff1673ffffffffffffffffffffffffffffffffffffffff16815260200190815260200160002060008a73ffffffffffffffffffffffffffffffffffffffff1673ffffffffffffffffffffffffffffffffffffffff16815260200190815260200160002060010160008282546142bb9190615606565b925050819055503373ffffffffffffffffffffffffffffffffffffffff168973ffffffffffffffffffffffffffffffffffffffff167ffec519aedf71f43b9532051902313c598fc69c93aeac23cafe3baf2f9ff0b3418a8a886040516143239392919061563a565b60405180910390a36001925050509695505050505050565b6001606581905550565b6000603360009054906101000a900473ffffffffffffffffffffffffffffffffffffffff16905081603360006101000a81548173ffffffffffffffffffffffffffffffffffffffff021916908373ffffffffffffffffffffffffffffffffffffffff1602179055508173ffffffffffffffffffffffffffffffffffffffff168173ffffffffffffffffffffffffffffffffffffffff167f8be0079c531659141344cd1fd0a4f28419497f9722a3daafe3b4186f6b6457e060405160405180910390a35050565b60008060005b609a80549050811015614757576000609a828154811061443457614433615985565b5b9060005260206000200160009054906101000a900473ffffffffffffffffffffffffffffffffffffffff169050609860008673ffffffffffffffffffffffffffffffffffffffff1673ffffffffffffffffffffffffffffffffffffffff16815260200190815260200160002060008273ffffffffffffffffffffffffffffffffffffffff1673ffffffffffffffffffffffffffffffffffffffff16815260200190815260200160002060000160009054906101000a900460ff16156147435760006144ff8683610646565b9050600073__$a07b62fc6554bedc1c2bb30ca3e36905b5$__6340c09c76609760008673ffffffffffffffffffffffffffffffffffffffff1673ffffffffffffffffffffffffffffffffffffffff16815260200190815260200160002060070160009054906101000a900473ffffffffffffffffffffffffffffffffffffffff16846040518363ffffffff1660e01b815260040161459e929190615922565b602060405180830381865af41580156145bb573d6000803e3d6000fd5b505050506040513d601f19601f820116820180604052508101906145df9190614fbd565b905060008173__$b4cafc809c0c4516e81e1b7a7f4901dbfc$__63761fdad69091609760008873ffffffffffffffffffffffffffffffffffffffff1673ffffffffffffffffffffffffffffffffffffffff16815260200190815260200160002060000160019054906101000a900473ffffffffffffffffffffffffffffffffffffffff1673ffffffffffffffffffffffffffffffffffffffff16634031234c6040518163ffffffff1660e01b8152600401602060405180830381865afa1580156146ad573d6000803e3d6000fd5b505050506040513d601f19601f820116820180604052508101906146d19190614fbd565b6040518363ffffffff1660e01b81526004016146ee929190615344565b602060405180830381865af415801561470b573d6000803e3d6000fd5b505050506040513d601f19601f8201168201806040525081019061472f9190614fbd565b9050808661473d919061539c565b95505050505b50808061474f906159b4565b915050614411565b5080915050919050565b60008060005b609a805490508110156148c9576000609a828154811061478a57614789615985565b5b9060005260206000200160009054906101000a900473ffffffffffffffffffffffffffffffffffffffff16905060006147c3868361239d565b9050600073__$a07b62fc6554bedc1c2bb30ca3e36905b5$__6340c09c76609760008673ffffffffffffffffffffffffffffffffffffffff1673ffffffffffffffffffffffffffffffffffffffff16815260200190815260200160002060070160009054906101000a900473ffffffffffffffffffffffffffffffffffffffff16846040518363ffffffff1660e01b8152600401614862929190615922565b602060405180830381865af415801561487f573d6000803e3d6000fd5b505050506040513d601f19601f820116820180604052508101906148a39190614fbd565b905080856148b1919061539c565b945050505080806148c1906159b4565b915050614767565b5080915050919050565b6000808273ffffffffffffffffffffffffffffffffffffffff163b119050919050565b600060019054906101000a900460ff16614945576040517f08c379a000000000000000000000000000000000000000000000000000000000815260040161493c90615f4c565b60405180910390fd5b61494d614b5c565b565b600060019054906101000a900460ff1661499e576040517f08c379a000000000000000000000000000000000000000000000000000000000815260040161499590615f4c565b60405180910390fd5b6149a6614bbd565b565b600033905090565b6000614b3d73__$b4cafc809c0c4516e81e1b7a7f4901dbfc$__633dca36386040518163ffffffff1660e01b8152600401602060405180830381865af41580156149fe573d6000803e3d6000fd5b505050506040513d601f19601f82011682018060405250810190614a229190614fbd565b8573__$b4cafc809c0c4516e81e1b7a7f4901dbfc$__63761fdad69091614a528888613cdc90919063ffffffff16565b6040518363ffffffff1660e01b8152600401614a6f929190615344565b602060405180830381865af4158015614a8c573d6000803e3d6000fd5b505050506040513d601f19601f82011682018060405250810190614ab09190614fbd565b73__$b4cafc809c0c4516e81e1b7a7f4901dbfc$__63e57b6d3b90916301e133806040518363ffffffff1660e01b8152600401614aee929190615344565b602060405180830381865af4158015614b0b573d6000803e3d6000fd5b505050506040513d601f19601f82011682018060405250810190614b2f9190614fbd565b614b4690919063ffffffff16565b90509392505050565b60008183614b54919061539c565b905092915050565b600060019054906101000a900460ff16614bab576040517f08c379a0000000000000000000000000000000000000000000000000000000008152600401614ba290615f4c565b60405180910390fd5b614bbb614bb66149a8565b614345565b565b600060019054906101000a900460ff16614c0c576040517f08c379a0000000000000000000000000000000000000000000000000000000008152600401614c0390615f4c565b60405180910390fd5b6001606581905550565b6000604051905090565b600080fd5b600080fd5b600073ffffffffffffffffffffffffffffffffffffffff82169050919050565b6000614c5582614c2a565b9050919050565b614c6581614c4a565b8114614c7057600080fd5b50565b600081359050614c8281614c5c565b92915050565b6000819050919050565b614c9b81614c88565b8114614ca657600080fd5b50565b600081359050614cb881614c92565b92915050565b60008060408385031215614cd557614cd4614c20565b5b6000614ce385828601614c73565b9250506020614cf485828601614ca9565b9150509250929050565b60008060408385031215614d1557614d14614c20565b5b6000614d2385828601614c73565b9250506020614d3485828601614c73565b9150509250929050565b614d4781614c88565b82525050565b6000602082019050614d626000830184614d3e565b92915050565b60008060008060808587031215614d8257614d81614c20565b5b6000614d9087828801614c73565b9450506020614da187828801614c73565b9350506040614db287828801614c73565b9250506060614dc387828801614ca9565b91505092959194509250565b600060208284031215614de557614de4614c20565b5b6000614df384828501614c73565b91505092915050565b60008115159050919050565b614e1181614dfc565b82525050565b6000602082019050614e2c6000830184614e08565b92915050565b6000604082019050614e476000830185614d3e565b614e546020830184614d3e565b9392505050565b614e6481614c4a565b82525050565b6000602082019050614e7f6000830184614e5b565b92915050565b7f4e487b7100000000000000000000000000000000000000000000000000000000600052602160045260246000fd5b60038110614ec557614ec4614e85565b5b50565b6000819050614ed682614eb4565b919050565b6000614ee682614ec8565b9050919050565b614ef681614edb565b82525050565b6000608082019050614f116000830187614eed565b614f1e6020830186614e5b565b614f2b6040830185614e5b565b614f386060830184614e5b565b95945050505050565b60008060008060808587031215614f5b57614f5a614c20565b5b6000614f6987828801614c73565b9450506020614f7a87828801614c73565b9350506040614f8b87828801614c73565b9250506060614f9c87828801614c73565b91505092959194509250565b600081519050614fb781614c92565b92915050565b600060208284031215614fd357614fd2614c20565b5b6000614fe184828501614fa8565b91505092915050565b60008160001c9050919050565b600060ff82169050919050565b600061501761501283614fea565b614ff7565b9050919050565b61502781614edb565b82525050565b60008160081c9050919050565b600073ffffffffffffffffffffffffffffffffffffffff82169050919050565b600061506d6150688361502d565b61503a565b9050919050565b6000819050919050565b600061509961509461508f84614c2a565b615074565b614c2a565b9050919050565b60006150ab8261507e565b9050919050565b60006150bd826150a0565b9050919050565b6150cd816150b2565b82525050565b6000819050919050565b60006150f06150eb83614fea565b6150d3565b9050919050565b61510081614c88565b82525050565b600073ffffffffffffffffffffffffffffffffffffffff82169050919050565b600061513961513483614fea565b615106565b9050919050565b600061514b826150a0565b9050919050565b61515b81615140565b82525050565b600073ffffffffffffffffffffffffffffffffffffffff82169050919050565b600061519461518f83614fea565b615161565b9050919050565b6151a481614c4a565b82525050565b610140820160008083015490506151c081615004565b6151cd600086018261501e565b506151d78161505a565b6151e460208601826150c4565b50600183015490506151f5816150dd565b61520260408601826150f7565b5060028301549050615213816150dd565b61522060608601826150f7565b5060038301549050615231816150dd565b61523e60808601826150f7565b506004830154905061524f816150dd565b61525c60a08601826150f7565b506005830154905061526d81615126565b61527a60c0860182615152565b506006830154905061528b816150dd565b61529860e08601826150f7565b50600783015490506152a981615181565b6152b761010086018261519b565b50600883015490506152c881615181565b6152d661012086018261519b565b5050505050565b6152e681614c4a565b82525050565b6152f581614c88565b82525050565b60006101a08201905061531160008301876151aa565b61531f6101408301866152dd565b61532d6101608301856152ec565b61533b6101808301846152ec565b95945050505050565b600060408201905061535960008301856152ec565b61536660208301846152ec565b9392505050565b7f4e487b7100000000000000000000000000000000000000000000000000000000600052601160045260246000fd5b60006153a782614c88565b91506153b283614c88565b92508282019050808211156153ca576153c961536d565b5b92915050565b6153d981614dfc565b82525050565b6000610320820190506153f5600083018a6151aa565b6154036101408301896151aa565b6154116102808301886152ec565b61541f6102a08301876152ec565b61542d6102c08301866152ec565b61543b6102e08301856152ec565b6154496103008301846153d0565b98975050505050505050565b60008060006060848603121561546e5761546d614c20565b5b600061547c86828701614fa8565b935050602061548d86828701614fa8565b925050604061549e86828701614fa8565b9150509250925092565b610140820160008083015490506154be81615004565b6154cb600086018261501e565b506154d58161505a565b6154e260208601826150c4565b50600183015490506154f3816150dd565b61550060408601826150f7565b5060028301549050615511816150dd565b61551e60608601826150f7565b506003830154905061552f816150dd565b61553c60808601826150f7565b506004830154905061554d816150dd565b61555a60a08601826150f7565b506005830154905061556b81615126565b61557860c0860182615152565b5060068301549050615589816150dd565b61559660e08601826150f7565b50600783015490506155a781615181565b6155b561010086018261519b565b50600883015490506155c681615181565b6155d461012086018261519b565b5050505050565b6000610160820190506155f160008301856154a8565b6155ff6101408301846152ec565b9392505050565b600061561182614c88565b915061561c83614c88565b92508282039050818111156156345761563361536d565b5b92915050565b600060608201905061564f6000830186614e5b565b61565c6020830185614e5b565b6156696040830184614d3e565b949350505050565b61567a81614dfc565b811461568557600080fd5b50565b60008151905061569781615671565b92915050565b6000602082840312156156b3576156b2614c20565b5b60006156c184828501615688565b91505092915050565b60006040820190506156df6000830185614e5b565b6156ec6020830184614d3e565b9392505050565b600082825260208201905092915050565b7f4163636f756e74206973206e6f74206865616c74687900000000000000000000600082015250565b600061573a6016836156f3565b915061574582615704565b602082019050919050565b600060208201905081810360008301526157698161572d565b9050919050565b60006101408201905061578660008301846151aa565b92915050565b6003811061579957600080fd5b50565b6000815190506157ab8161578c565b92915050565b6000815190506157c081614c5c565b92915050565b600080600080608085870312156157e0576157df614c20565b5b60006157ee8782880161579c565b94505060206157ff878288016157b1565b9350506040615810878288016157b1565b9250506060615821878288016157b1565b91505092959194509250565b7f496e697469616c697a61626c653a20636f6e747261637420697320616c72656160008201527f647920696e697469616c697a6564000000000000000000000000000000000000602082015250565b6000615889602e836156f3565b91506158948261582d565b604082019050919050565b600060208201905081810360008301526158b88161587c565b9050919050565b6000819050919050565b600060ff82169050919050565b60006158f16158ec6158e7846158bf565b615074565b6158c9565b9050919050565b615901816158d6565b82525050565b600060208201905061591c60008301846158f8565b92915050565b600060408201905061593760008301856152dd565b61594460208301846152ec565b9392505050565b60006101808201905061596160008301866151aa565b61596f6101408301856152ec565b61597d6101608301846152ec565b949350505050565b7f4e487b7100000000000000000000000000000000000000000000000000000000600052603260045260246000fd5b60006159bf82614c88565b91507fffffffffffffffffffffffffffffffffffffffffffffffffffffffffffffffff82036159f1576159f061536d565b5b600182019050919050565b600080fd5b600080fd5b6000601f19601f8301169050919050565b7f4e487b7100000000000000000000000000000000000000000000000000000000600052604160045260246000fd5b615a4f82615a06565b810181811067ffffffffffffffff82111715615a6e57615a6d615a17565b5b80604052505050565b6000615a81614c16565b9050615a8d8282615a46565b919050565b600067ffffffffffffffff821115615aad57615aac615a17565b5b615ab682615a06565b9050602081019050919050565b60005b83811015615ae1578082015181840152602081019050615ac6565b60008484015250505050565b6000615b00615afb84615a92565b615a77565b905082815260208101848484011115615b1c57615b1b615a01565b5b615b27848285615ac3565b509392505050565b600082601f830112615b4457615b436159fc565b5b8151615b54848260208601615aed565b91505092915050565b600060208284031215615b7357615b72614c20565b5b600082015167ffffffffffffffff811115615b9157615b90614c25565b5b615b9d84828501615b2f565b91505092915050565b600081905092915050565b7f7300000000000000000000000000000000000000000000000000000000000000600082015250565b6000615be7600183615ba6565b9150615bf282615bb1565b600182019050919050565b600081519050919050565b6000615c1382615bfd565b615c1d8185615ba6565b9350615c2d818560208601615ac3565b80840191505092915050565b6000615c4482615bda565b9150615c508284615c08565b915081905092915050565b6000615c6682615bfd565b615c7081856156f3565b9350615c80818560208601615ac3565b615c8981615a06565b840191505092915050565b60006040820190508181036000830152615cae8185615c5b565b90508181036020830152615cc28184615c5b565b90509392505050565b6000615cd682614c4a565b9050919050565b615ce681615ccb565b8114615cf157600080fd5b50565b600081519050615d0381615cdd565b92915050565b600060208284031215615d1f57615d1e614c20565b5b6000615d2d84828501615cf4565b91505092915050565b7f4f776e61626c653a206e6577206f776e657220697320746865207a65726f206160008201527f6464726573730000000000000000000000000000000000000000000000000000602082015250565b6000615d926026836156f3565b9150615d9d82615d36565b604082019050919050565b60006020820190508181036000830152615dc181615d85565b9050919050565b600061018082019050615dde60008301866154a8565b615dec6101408301856152ec565b615dfa6101608301846152ec565b949350505050565b7f4f776e61626c653a2063616c6c6572206973206e6f7420746865206f776e6572600082015250565b6000615e386020836156f3565b9150615e4382615e02565b602082019050919050565b60006020820190508181036000830152615e6781615e2b565b9050919050565b7f5265656e7472616e637947756172643a207265656e7472616e742063616c6c00600082015250565b6000615ea4601f836156f3565b9150615eaf82615e6e565b602082019050919050565b60006020820190508181036000830152615ed381615e97565b9050919050565b7f496e697469616c697a61626c653a20636f6e7472616374206973206e6f74206960008201527f6e697469616c697a696e67000000000000000000000000000000000000000000602082015250565b6000615f36602b836156f3565b9150615f4182615eda565b604082019050919050565b60006020820190508181036000830152615f6581615f29565b905091905056fea264697066735822122062c702dd27bcfe4991d0bfb13c9858068c587c9ffe377dd066f9e75c4f4219fa64736f6c63430008110033","linkReferences":{"contracts/libraries/AmountShareConvertor.sol":{"AmountShareConvertor":[{"length":20,"start":4710},{"length":20,"start":4856},{"length":20,"start":6599},{"length":20,"start":12047},{"length":20,"start":14034},{"length":20,"start":14190}]},"contracts/libraries/CompoundInterestCalculator.sol":{"CompoundInterestCalculator":[{"length":20,"start":1892},{"length":20,"start":9154}]},"contracts/libraries/LendingPoolHelper.sol":{"LendingPoolHelper":[{"length":20,"start":3268},{"length":20,"start":8431}]},"contracts/libraries/Oracle.sol":{"Oracle":[{"length":20,"start":9022},{"length":20,"start":17702},{"length":20,"start":18410}]},"contracts/libraries/WadMath.sol":{"WadMath":[{"length":20,"start":2188},{"length":20,"start":2342},{"length":20,"start":2598},{"length":20,"start":2752},{"length":20,"start":3684},{"length":20,"start":3838},{"length":20,"start":5625},{"length":20,"start":5855},{"length":20,"start":6009},{"length":20,"start":7905},{"length":20,"start":11487},{"length":20,"start":11641},{"length":20,"start":12978},{"length":20,"start":13132},{"length":20,"start":17927},{"length":20,"start":18904},{"length":20,"start":19014},{"length":20,"start":19155}]}},"deployedLinkReferences":{"contracts/libraries/AmountShareConvertor.sol":{"AmountShareConvertor":[{"length":20,"start":4677},{"length":20,"start":4823},{"length":20,"start":6566},{"length":20,"start":12014},{"length":20,"start":14001},{"length":20,"start":14157}]},"contracts/libraries/CompoundInterestCalculator.sol":{"CompoundInterestCalculator":[{"length":20,"start":1859},{"length":20,"start":9121}]},"contracts/libraries/LendingPoolHelper.sol":{"LendingPoolHelper":[{"length":20,"start":3235},{"length":20,"start":8398}]},"contracts/libraries/Oracle.sol":{"Oracle":[{"length":20,"start":8989},{"length":20,"start":17669},{"length":20,"start":18377}]},"contracts/libraries/WadMath.sol":{"WadMath":[{"length":20,"start":2155},{"length":20,"start":2309},{"length":20,"start":2565},{"length":20,"start":2719},{"length":20,"start":3651},{"length":20,"start":3805},{"length":20,"start":5592},{"length":20,"start":5822},{"length":20,"start":5976},{"length":20,"start":7872},{"length":20,"start":11454},{"length":20,"start":11608},{"length":20,"start":12945},{"length":20,"start":13099},{"length":20,"start":17894},{"length":20,"start":18871},{"length":20,"start":18981},{"length":20,"start":19122}]}}}